:100000000C94E2000C94DB030C94B4030C940A01EE
:100010000C940A010C940A010C940A010C940A0134
:100020000C940A010C940A010C940A010C940A0124
:100030000C940A010C94C5060C940A010C940A0154
:100040000C946A030C940A010C94B0020C948A027A
:100050000C940A010C940A010C940A010C940A01F4
:100060000C940A010C940A010000000023002600F1
:100070002900005EBCE2613FDD83C29C7E20A3FDBF
:100080001F419DC3217FFCA2401E5F01E3BD3E6076
:1000900082DC237D9FC1421CFEA0E1BF5D0380DEA8
:1000A0003C62BEE0025CDF81633D7C22C09E1D435A
:1000B000A1FF4618FAA427799BC584DA3866E5BB08
:1000C0005907DB856739BAE406581947A5FB782636
:1000D000C49A653BD987045AB8E6A7F91B45C69868
:1000E0007A24F8A6441A99C7257B3A6486D85B051A
:1000F000E7B98CD2306EEDB3510F4E10F2AC2F71C8
:1001000093CD114FADF3702ECC92D38D6F31B2ECF5
:100110000E50AFF1134DCE90722C6D33D18F0C5227
:10012000B0EE326C8ED0530DEFB1F0AE4C1291CFD9
:100130002D73CA947628ABF517490856B4EA693787
:10014000D58B5709EBB536688AD495CB2977F4AAB5
:100150004816E9B7550B88D6346A2B7597C94A14E7
:10016000F6A8742AC896154BA9F7B6E80A54D78999
:100170006B3500000000240027002A00000000006A
:10018000250028002B0004040404040404040202D3
:100190000202020203030303030301020408102006
:1001A0004080010204081020010204081020000011
:1001B0000008000201000003040700000000000026
:1001C00000008F0811241FBECFEFD8E0DEBFCDBFE7
:1001D00011E0A0E0B1E0E6E3FEE102C005900D927F
:1001E000AC32B107D9F723E0ACE2B1E001C01D9217
:1001F000A130B207E1F710E0C2EED0E004C02197D1
:10020000FE010E94C30CC13ED107C9F70E942C0910
:100210000C94190F0C940000FC01918D828D98179D
:1002200061F0828DDF01A80FB11D5D968C91928DDA
:100230009F5F9F73928F90E008958FEF9FEF0895D7
:10024000FC01918D828D981731F0828DE80FF11DA0
:10025000858D90E008958FEF9FEF0895FC01918DBB
:10026000228D892F90E0805C9F4F821B91098F73B4
:10027000992708958BE491E00E942E0121E0892BBB
:1002800009F420E0822F0895FC01848DDF01A80F7E
:10029000B11DA35ABF4F2C91848D90E001968F73AE
:1002A0009927848FA689B7892C93A089B1898C91CD
:1002B00080648C93938D848D981306C00288F38993
:1002C000E02D80818F7D80830895EF92FF920F93C0
:1002D0001F93CF93DF93EC0181E0888F9B8D8C8DF2
:1002E000981305C0E889F989808185FD24C0F62E20
:1002F0000B8D10E00F5F1F4F0F731127E02E8C8DB9
:10030000E8120CC00FB607FCFACFE889F9898081A2
:1003100085FFF5CFCE010E944401F1CF8B8DFE0108
:10032000E80FF11DE35AFF4FF0820B8FEA89FB893A
:100330008081806207C0EE89FF896083E889F9893E
:1003400080818064808381E090E0DF91CF911F9174
:100350000F91FF90EF900895CF93DF93EC01888D7C
:100360008823C9F0EA89FB89808185FD05C0A889B9
:10037000B9898C9186FD0FC00FB607FCF5CF80813F
:1003800085FFF2CFA889B9898C9185FFEDCFCE0189
:100390000E944401E7CFDF91CF91089580E090E083
:1003A000892B29F00E943A0181110C9400000895D4
:1003B0009FB7F894409142015091430160914401EC
:1003C0007091450186B5A89B06C08F3F21F04F5F15
:1003D0005F4F6F4F7F4F9FBF762F652F542F44275E
:1003E0009A01AB01280F311D411D511DA5E0B0E060
:1003F0000E94A40C08950895089580914A018F5F8A
:1004000080934A0108952FB7F89480913E0190910E
:100410003F01A0914001B09141012FBF809339016C
:1004200090933A01A0933B01B0933C018091390134
:1004300090913A01A0913B01B0913C01409135016E
:10044000509136016091370170913801841B950BF2
:10045000A60BB70B0B97A105B105D0F08091310128
:1004600090913201A0913301B09134018093350114
:1004700090933601A0933701B093380180914901E0
:100480008F5F80934901809130018F5F80933001AD
:1004900008952FB7F89480913E0190913F01A0916B
:1004A0004001B09141012FBF8093310190933201FF
:1004B000A0933301B09334018091310190913201C6
:1004C000A0913301B091340140912C0150912D0144
:1004D00060912E0170912F01841B950BA60BB70B19
:1004E0000B97A105B105A8F08091310190913201DF
:1004F000A0913301B091340180932C0190932D0190
:10050000A0932E01B0932F01809148018F5F8093BB
:10051000480108951F920F920FB60F9211242F9346
:100520003F934F935F936F937F938F939F93AF937B
:10053000BF93EF93FF938BE491E00E944401FF91FE
:10054000EF91BF91AF919F918F917F916F915F914B
:100550004F913F912F910F900FBE0F901F901895C4
:100560001F920F920FB60F9211242F938F939F9388
:10057000EF93FF93E0915B01F0915C018081E0914A
:100580006101F091620182FD12C09081809164014D
:100590008F5F8F7320916501821751F0E0916401A4
:1005A000F0E0E55BFE4F958F8093640101C0808190
:1005B000FF91EF919F918F912F910F900FBE0F9010
:1005C0001F90189590E0FC01E255FE4F3491FC011C
:1005D000E656FE4F2491FC01EA57FE4FE491EE23CC
:1005E00009F43BC0332339F1333091F038F4313022
:1005F000A9F0323001F584B58F7D12C0373091F00B
:100600003830A1F03430B9F4809180008F7D03C080
:10061000809180008F77809380000DC084B58F77A4
:1006200084BD09C08091B0008F7703C08091B00075
:100630008F7D8093B000F0E0EE0FFF1FE458FE4F77
:10064000A591B4918FB7F894EC91611103C02095F6
:100650002E2301C02E2B2C938FBF0895CF93DF93B1
:1006600090E0FC01E656FE4F2491FC01EA57FE4F54
:100670008491882361F190E0880F991FFC01EE5866
:10068000FE4FC591D491FC01E458FE4FA591B49161
:10069000611109C09FB7F8948881209582238883CF
:1006A000EC912E230BC0623061F49FB7F89438812F
:1006B000822F809583238883EC912E2B2C939FBFD0
:1006C00006C08FB7F894E8812E2B28838FBFDF9167
:1006D000CF9108951F920F920FB60F9211242F936E
:1006E0003F938F939F93AF93BF9380913E019091DF
:1006F0003F01A0914001B091410130913D012DE3B6
:10070000230F2D3720F40196A11DB11D05C020EC4B
:10071000230F0296A11DB11D20933D0180933E0140
:1007200090933F01A0934001B09341018091420119
:1007300090914301A0914401B09145010196A11D02
:10074000B11D8093420190934301A0934401B09363
:100750004501BF91AF919F918F913F912F910F9044
:100760000FBE0F901F9018951F920F920FB60F9209
:1007700011242F933F934F935F936F937F938F93A6
:100780009F93AF93BF93EF93FF93E0910201F0919A
:1007900003010995FF91EF91BF91AF919F918F91C7
:1007A0007F916F915F914F913F912F910F900FBE6D
:1007B0000F901F9018951F920F920FB60F92112451
:1007C0002F933F934F935F936F937F938F939F9359
:1007D000AF93BF93EF93FF93E0910001F09101017C
:1007E0000995FF91EF91BF91AF919F918F917F916B
:1007F0006F915F914F913F912F910F900FBE0F908E
:100800001F901895DC01E0E0615038F08D91E827E9
:10081000F0E0EE58FF4FE491F7CF8E2F0895FC01E2
:1008200090810180F281E02DF8948181892B818370
:100830002281892F809528232283A2E0B0E011979E
:10084000F1F7218182238183A0E1B0E01197F1F7D4
:1008500080817894E6E6F0E03197F1F7982381E023
:1008600009F480E00895FC0190810180F281E02D7F
:10087000892F809560FF12C0F894228182238283A1
:100880008181892B8183A0E1B0E01197F1F782810A
:10089000982B928378948AE690E011C0F894228194
:1008A000822382838181892B8183AEE7B0E0119717
:1008B000F1F78281982B9283789486E090E00197FB
:1008C000F1F70895CF92DF92EF92FF920F931F936B
:1008D000CF93DF931F92CDB7DEB76C01E62E08E011
:1008E00010E0FF24F39461E08F2D8E2109F460E085
:1008F000C60149830E943304FF0C0150110949814C
:100900000115110581F7411115C0F894D601119612
:10091000ED91FC91129791818C918095892381832F
:100920001196ED91FC91129792818C91809589237B
:10093000828378940F90DF91CF911F910F91FF9058
:10094000EF90DF90CF900895CF92DF92EF92FF92D9
:100950000F931F93CF93DF931F92CDB7DEB78C0118
:10096000F62E40E065E579830E946204CF2C798100
:10097000D72E760188E0E80EF11CF60161916F0137
:1009800040E0C8010E946204CE14DF04B1F70F906A
:10099000DF91CF911F910F91FF90EF90DF90CF905B
:1009A0000895FC0190810180F281E02DF89481810D
:1009B000292F20958223818378948DE7815009F136
:1009C00030813923D9F3F894828182238283818113
:1009D000892B81837894ACEBB3E01197F1F7F8940D
:1009E000818128232183A8E8B0E01197F1F7808165
:1009F000982381E009F080E07894E0E3F3E0319718
:100A0000F1F708958F929F92AF92BF92CF92DF92AB
:100A1000EF92FF92CF93DF93EC018D819E810E9434
:100A2000D10440E06CEC8D819E810E94620448817B
:100A300064E48D819E810E9462048A818823C9F1C9
:100A4000E981E950E33040F4F0E0EE0FFF1FEB5F87
:100A5000FE4F8081918102C08EEE92E06C01990F71
:100A6000EE08FF080E94D8014B015C01C114D104BB
:100A7000E104F104F1F00E94D801DC01CB018819F6
:100A80009909AA09BB09883E9340A105B10570F3F5
:100A900021E0C21AD108E108F10888EE880E83E04F
:100AA000981EA11CB11CC114D104E104F10419F772
:100AB000DDCFDF91CF91FF90EF90DF90CF90BF908F
:100AC000AF909F908F9008956F927F928F929F9298
:100AD000AF92BF92CF92DF92EF92FF920F931F934C
:100AE000CF93DF9300D0CDB7DEB78C017A01FC0144
:100AF0008581968169837A830E94D10469817A8194
:100B0000882391F1F801858196810E94A40440E038
:100B10006EEBF801858196810E94620437015701CE
:100B2000F9E0AF0EB11CF8018580968088E0C82EF0
:100B3000D12CEE24E394F12CC4010E940F04811106
:100B4000FE28EE0CF1E0CF1AD108B1F7F301F192D3
:100B50003F01EA15FB0539F7F801858196810E946E
:100B6000D10491E0813009F090E0892F0F900F902F
:100B7000DF91CF911F910F91FF90EF90DF90CF9079
:100B8000BF90AF909F908F907F906F900895CF937C
:100B9000DF93CDB7DEB729970FB6F894DEBF0FBE4F
:100BA000CDBFFB012081203119F1AE014F5F5F4FB6
:100BB0000E946405882379F068E0CE0101960E94C6
:100BC00002049985891307C008C0803458F08F3516
:100BD00069F08F3769F080E00CC08D818F33A9F701
:100BE0008AE007C08F31B9F789E003C08BE001C00C
:100BF0008CE029960FB6F894DEBF0FBECDBFDF9113
:100C0000CF910895EF92FF920F931F93CF93DF93AD
:100C1000CDB7DEB761970FB6F894DEBF0FBECDBF7C
:100C20008C01DC011596ED91FC91169713861586C3
:100C30001486DF011B9633961E92AE17BF07E1F7AD
:100C4000F8011482FF24F394BE01665F7F4FD80140
:100C500015968D919C9116970E946C07882309F434
:100C600058C067E0CE010A960E9402049989891350
:100C7000EBCFD8018C91811126C015968D919C9156
:100C800016970E94D104BE01665F7F4FF8018581EF
:100C900096810E94A40440E064EBD80115968D91E2
:100CA0009C9116970E946204F801858196810E94AA
:100CB0000F04E82ED80115968D919C9116970E94ED
:100CC000D104EE2019F1AE014F5F5F4FBE01665FA8
:100CD0007F4FC8010E946405F801E180BE01665F94
:100CE0007F4FC8010E94C7058E1520F4D8011196C8
:100CF0008C9106C0BE01665F7F4FC8010E94C70588
:100D0000F801818384818F5F84839ECFF801F08214
:100D1000DACF61960FB6F894DEBF0FBECDBFDF917C
:100D2000CF911F910F91FF90EF9008950F931F9314
:100D3000CF93DF93EC01162F60E0812F0E942E03EA
:100D4000612F70E0FB01E656FE4FE491E883FB0162
:100D5000EA57FE4FE491F0E0EE0FFF1FE859FF4F16
:100D6000859194919A8389831B861D861C86FE013A
:100D70003B968E010D5F1F4F1292E017F107E1F7CE
:100D8000DF91CF911F910F9108951F920F920FB68F
:100D90000F9211242F933F934F935F936F937F9301
:100DA0008F939F93AF93BF93EF93FF93E09146018F
:100DB000F09147010995FF91EF91BF91AF919F91FC
:100DC0008F917F916F915F914F913F912F910F90F4
:100DD0000FBE0F901F901895CF92DF92EF92FF9267
:100DE0000F931F93CF93DF936C017A018B01C0E0C7
:100DF000D0E0CE15DF0589F0D8016D918D01D601C7
:100E0000ED91FC910190F081E02DC6010995892BAF
:100E100011F47E0102C02196ECCFC701DF91CF9182
:100E20001F910F91FF90EF90DF90CF900895009762
:100E300069F0FC0101900020E9F73197AF01481BF0
:100E4000590BBC018BE491E00C94EC0680E090E03F
:100E500008958F929F92AF92BF920F931F93CF935B
:100E6000DF93CDB7DEB7A1970FB6F894DEBF0FBE04
:100E7000CDBF19A2423008F44AE08E010F5D1F4F2A
:100E8000842E912CA12CB12CA50194010E94820CDE
:100E9000E62FB901CA0101501109EA3014F4E05DEE
:100EA00001C0E95CD801EC93232B242B252B61F79F
:100EB000C8010E941707A1960FB6F894DEBF0FBEB7
:100EC000CDBFDF91CF911F910F91BF90AF909F90B9
:100ED0008F9008950E94140FAF92BF92CF92DF922D
:100EE000EF92FF920F931F93CF93DF931F92CDB793
:100EF000DEB75C01D62EE72EFC018585811105C089
:100F0000C5010E94D104811106C0F5011386158622
:100F1000148680E065C040E060EFC5010E94620475
:100F200001E0F12CC12C11E0C5010E940F04682FD3
:100F3000C50169830E940F046981613019F4813011
:100F4000B9F433C04F2D50E068131BC0F501838501
:100F5000181730F4E40FF51F8381802349F402C091
:100F6000181731F060E0193058F4F501148708C003
:100F7000F501EF0DF11D8381802B838361E009C0B2
:100F8000C12EF501E40FF51F9381802F80958923F1
:100F90008383C5010E9433041F5F000F11F4F39493
:100FA00001E0F7E0FF1508F0BFCF113408F4ADCF32
:100FB000F501C386C11002C081E08587F5018381F8
:100FC000882309F4A2CFD5011396ED2DFE2D9501AE
:100FD000255F3F4F8D918193A217B307D9F781E029
:100FE0000F90DF91CF911F910F91FF90EF90DF90C5
:100FF000CF90BF90AF9008950F931F93CF93DF933F
:10100000CDB7DEB761970FB6F894DEBF0FBECDBF88
:101010008C01DC011596ED91FC91169713861586CF
:101020001486DF011B9633961E92AE17BF07E1F7B9
:10103000BE01665F7F4FF801858196810E946C0733
:10104000882341F067E0CE010A960E940204998944
:10105000891729F060E070E08EEF92EC55C0AE0188
:101060004F5F5F4FBE01665F7F4FC8010E946405FE
:10107000882309F446C068E0CE0101960E9402046C
:10108000998589133EC0698188E0689FB001112469
:101090008A81282F30E0322F2227330F330F330F6E
:1010A000262B372B8A85803151F5688570E08F813A
:1010B000AB01481B5109CA019695982F882797952F
:1010C00087950E946E0C60517109207F53E0220FBA
:1010D000331F5A95E1F7620F731F613854EE75079D
:1010E0000CF4B8CF072E000C880B990B0E94ED0D65
:1010F00020E030E040E05CE30E94A20E05C0B901B0
:10110000ECCF60E874EEE9CF61960FB6F894DEBFDD
:101110000FBECDBFDF91CF911F910F910895EBE4EA
:10112000F1E01382128288EE93E0A0E0B0E08483C5
:101130009583A683B7838FE091E09183808385ECCC
:1011400090E09587848784EC90E09787868780EC91
:1011500090E0918B808B81EC90E0938B828B82EC82
:1011600090E0958B848B86EC90E0978B868B118E2C
:10117000128E138E148E68E083EF92E00E94960622
:1011800069E085EE92E00E9496066AE087ED92E0C3
:101190000E9496066BE089EC92E00E9496066CE055
:1011A0008BEB92E00E9496066DE08DEA92E00E9441
:1011B0009606EAE9F2E02CEF31E0328B218B83EFE7
:1011C00092E0968385831482108299E0918381E076
:1011D00082838383E7E8F2E0328B218B45EE52E095
:1011E0005683458314821082918382838383E4E74C
:1011F000F2E0328B218B47ED52E056834583148217
:101200001082918382838383E1E6F2E0328B218B2B
:1012100049EC52E056834583148210829183828385
:101220008383EEE4F2E0328B218B4BEB52E056836A
:10123000458314821082918382838383EBE3F2E0FF
:10124000328B218B2DEA32E0368325831482108283
:101250009183828383830895789484B5826084BD6A
:1012600084B5816084BD85B5826085BD85B58160AA
:1012700085BD80916E00816080936E001092810028
:1012800080918100826080938100809181008160E3
:1012900080938100809180008160809380008091A4
:1012A000B10084608093B1008091B0008160809330
:1012B000B00080917A00846080937A0080917A00F7
:1012C000826080937A0080917A008E7F80937A008A
:1012D00080917A00806880937A001092C100E0913A
:1012E0005B01F0915C0182E08083E0915701F09115
:1012F00058011082E0915901F0915A018BE08083EE
:1013000010926301E0915F01F091600186E08083BB
:10131000E0915D01F0915E01808180618083E091C8
:101320005D01F0915E01808188608083E0915D01C4
:10133000F0915E01808180688083E0915D01F09191
:101340005E0180818F7D808361E084E00E942E03B6
:1013500060E084E00E94E20260E082E00E942E03EE
:1013600060E082E00E94E20289E492E09093010151
:101370008093000180916900836080936900E89AFE
:1013800060E083E00E942E0360E083E00E94E202BE
:1013900083E092E0909303018093020180916900C1
:1013A0008C6080936900E99A80E1809381001092BB
:1013B000800084E08093EA018BE49CE49093E9014F
:1013C0008093E801909387008093860084E1809366
:1013D00081008DEF91E0909347018093460181E079
:1013E00080936F0078948AE992E00E94020687E871
:1013F00092E00E94020684E792E00E94020681E6E3
:1014000092E00E9402068EE492E00E9402068BE3C4
:1014100092E00E94020610929C02109289021092A1
:101420007602109263021092500210923D0283E005
:101430008093040180914A018F3241F461E084E09D
:101440000E94E20260E084E00E94E20280914A0190
:101450008033C1F48AE992E00E94020587E892E0B5
:101460000E94020584E792E00E94020581E692E074
:101470000E9402058EE492E00E9402058BE392E056
:101480000E94020580914A01823309F048C08AE92E
:1014900092E00E94FC0760930B0270930C02809311
:1014A0000D0290930E0287E892E00E94FC07609381
:1014B0000F0270931002809311029093120284E73E
:1014C00092E00E94FC0760931302709314028093D1
:1014D00015029093160281E692E00E94FC07609349
:1014E0001702709318028093190290931A028EE4E7
:1014F00092E00E94FC0760931B0270931C02809391
:101500001D0290931E028BE392E00E94FC07609301
:101510001F027093200280932102909322028091F7
:101520004A018C3308F4D7C110924A0160914801F6
:1015300070E080E090E00E94EB0D24E83DE04FE891
:101540005EE30E94A20E6093EB017093EC01809326
:10155000ED019093EE01109248016091490170E015
:1015600080E090E00E94EB0D2AE939E949E150E47E
:101570000E94A20E20E030E040E752E40E944A0DB3
:101580006093EF017093F0018093F1019093F20169
:101590001092490120E280E090E0DC0140910401DA
:1015A00030E4439FA001112440937C0030917A00E5
:1015B000306430937A0030917A0036FDFCCF409150
:1015C00078003091790050E0532B052E000C660B0B
:1015D000770B840F951FA61FB71F2150F9F625E042
:1015E000B695A795979587952A95D1F78930910556
:1015F00008F447C08B30910508F44AC08E3091053D
:1016000008F44DC08531910508F450C08132910530
:1016100008F454C08C32910508F457C08234910507
:1016200008F45BC08D35910508F45EC089389105DA
:1016300008F461C0893B910508F464C0853E9105BA
:1016400008F468C0813421E0920708F46AC0873A40
:1016500031E0930708F46DC08B3322E0920708F461
:101660006CC0853533E0930708F46FC08115944052
:1016700008F072C0C12CD12C17E8E12E13E4F12E32
:101680006BC0C12CD12CD1EEED2ED2E4FD2E64C066
:10169000C12CD12CC7E8EC2EC2E4FC2E5DC0C12CBD
:1016A000D12CB4EBEB2EB2E4FB2E56C0C12CA0E83B
:1016B000DA2EADE1EA2EA3E4FA2E4EC0C12CD12CD5
:1016C000F7E0EF2EF3E4FF2E47C0C12CE0E8DE2E5A
:1016D000EAE4EE2EE3E4FE2E3FC0C12CD12C74E3ED
:1016E000E72E73E4F72E38C0C12CD12C64EBE62E24
:1016F00061E4F62E31C0C12CD12C54E3E52E52E426
:10170000F52E2AC0C12C40E8D42E47E7E42E43E44E
:10171000F42E22C0C12CD12C31E6E32E33E4F32E7B
:101720001BC0C12C20ECD22E28EAE22E23E4F22E9C
:1017300013C0C12CD12C76010FC0C12C90E4D92E3E
:1017400092E9E92E93E4F92E07C0C12C80E8D82E47
:101750008DE9E82E83E4F82EC092F301D092F401D3
:10176000E092F501F092F601CBEED1E010E0899025
:101770009990A990B990A5019401C501B4010E9466
:101780000F0F882319F08BE191E01AC02401350175
:10179000E89477F82FEF3FEF4FE75FE7C301B2011F
:1017A0000E940F0F81110FC02FEF3FEF4FE75FE750
:1017B000C301B2010E94450D18162CF48FE191E08F
:1017C0000E9417077BC02FEF3FEF4FE75FE4C50193
:1017D000B4010E949D0E18161CF483E291E0F0CF34
:1017E0002FEF3FEF4FE75FECC501B4010E94450DBD
:1017F00087FDF3CF20E030E0A901C501B4010E94CC
:10180000450D87FF0FC0E0914B01F0914C01019015
:10181000F081E02D6DE28BE491E00995B7FAB09488
:10182000B7F8B0942AE037ED43EA5BE3C501B401B1
:101830000E94D90C2B013C010E94BC0D4B015C01A4
:101840000E94EB0D9B01AC01C301B2010E94D80CB8
:101850002B013C014AE0C501B4010E94290787E23F
:1018600091E00E94170720E030E040E251E4C3011C
:10187000B2010E94A20E2B013C010E94BC0D4B0143
:10188000A12CB12C4AE0C501B4010E942907C50171
:10189000B4010E94EB0D9B01AC01C301B2010E9497
:1018A000D80C20E030E040E251E40E94A20E0E94F9
:1018B000BC0D80E090E04AE00E9429071F5F1431D0
:1018C00031F060E28BE491E00E94650150CF89E243
:1018D00091E00E9417070E94CE01ACCD97FB072E26
:1018E00016F4009407D077FD09D00E94AF0C07FCD6
:1018F00005D03EF4909581959F4F08957095619520
:101900007F4F0895A1E21A2EAA1BBB1BFD010DC03B
:10191000AA1FBB1FEE1FFF1FA217B307E407F5079F
:1019200020F0A21BB30BE40BF50B661F771F881F7B
:10193000991F1A9469F760957095809590959B0111
:10194000AC01BD01CF0108950E94C90CA59F900D67
:10195000B49F900DA49F800D911D11240895AA1B82
:10196000BB1B51E107C0AA1FBB1FA617B70710F08A
:10197000A61BB70B881F991F5A95A9F780959095BC
:10198000BC01CD010895EE0FFF1F0590F491E02DED
:101990000994A29FB001B39FC001A39F700D811D48
:1019A0001124911DB29F700D811D1124911D089568
:1019B0005058BB27AA270E94F00C0C94630E0E947B
:1019C000550E38F00E945C0E20F039F49F3F19F458
:1019D00026F40C94520E0EF4E095E7FB0C944C0E9A
:1019E000E92F0E94740E58F3BA1762077307840731
:1019F000950720F079F4A6F50C94960E0EF4E09578
:101A00000B2EBA2FA02D0B01B90190010C01CA01B8
:101A1000A0011124FF27591B99F0593F50F4503E63
:101A200068F11A16F040A22F232F342F4427585F55
:101A3000F3CF469537952795A795F0405395C9F76D
:101A40007EF41F16BA0B620B730B840BBAF0915025
:101A5000A1F0FF0FBB1F661F771F881FC2F70EC0C4
:101A6000BA0F621F731F841F48F487957795679597
:101A7000B795F7959E3F08F0B0CF9395880F08F083
:101A80009927EE0F9795879508950E94280E08F4E0
:101A900081E008950E945E0D0C94630E0E945C0E1E
:101AA00058F00E94550E40F029F45F3F29F00C9445
:101AB0004C0E51110C94970E0C94520E0E94740E01
:101AC00068F39923B1F3552391F3951B550BBB276D
:101AD000AA2762177307840738F09F5F5F4F220FB2
:101AE000331F441FAA1FA9F335D00E2E3AF0E0E8A9
:101AF00032D091505040E695001CCAF72BD0FE2FF3
:101B000029D0660F771F881FBB1F26173707480786
:101B1000AB07B0E809F0BB0B802DBF01FF2793583E
:101B20005F4F3AF09E3F510578F00C944C0E0C94A8
:101B3000970E5F3FE4F3983ED4F3869577956795CB
:101B4000B795F7959F5FC9F7880F911D9695879573
:101B500097F90895E1E0660F771F881FBB1F621792
:101B600073078407BA0720F0621B730B840BBA0B50
:101B7000EE1F88F7E09508950E947C0E88F09F572D
:101B800098F0B92F9927B751B0F0E1F0660F771FA1
:101B9000881F991F1AF0BA95C9F714C0B13091F097
:101BA0000E94960EB1E008950C94960E672F782F40
:101BB0008827B85F39F0B93FCCF38695779567955C
:101BC000B395D9F73EF490958095709561957F4FC8
:101BD0008F4F9F4F0895E89409C097FB3EF490956E
:101BE0008095709561957F4F8F4F9F4F9923A9F0F6
:101BF000F92F96E9BB279395F69587957795679585
:101C0000B795F111F8CFFAF4BB0F11F460FF1BC0C8
:101C10006F5F7F4F8F4F9F4F16C0882311F096E95B
:101C200011C0772321F09EE8872F762F05C0662309
:101C300071F096E8862F70E060E02AF09A95660FC2
:101C4000771F881FDAF7880F9695879597F908957B
:101C5000990F0008550FAA0BE0E8FEEF16161706BD
:101C6000E807F907C0F012161306E407F50798F025
:101C7000621B730B840B950B39F40A2661F0232B3E
:101C8000242B252B21F408950A2609F4A140A695BA
:101C90008FEF811D811D089597F99F6780E870E09F
:101CA00060E008959FEF80EC089500240A941616D2
:101CB000170618060906089500240A94121613063A
:101CC000140605060895092E0394000C11F48823C8
:101CD00052F0BB0F40F4BF2B11F460FF04C06F5FE4
:101CE0007F4F8F4F9F4F089557FD9058440F551FBA
:101CF00059F05F3F71F04795880F97FB991F61F08E
:101D00009F3F79F087950895121613061406551F04
:101D1000F2CF4695F1DF08C0161617061806991F70
:101D2000F1CF86957105610508940895E894BB2765
:101D300066277727CB0197F908950E94280E08F4AB
:101D40008FEF08950E94B50E0C94630E0E94550EFD
:101D500038F00E945C0E20F0952311F00C944C0E8C
:101D60000C94520E11240C94970E0E94740E70F372
:101D7000959FC1F3950F50E0551F629FF001729F30
:101D8000BB27F00DB11D639FAA27F00DB11DAA1F3F
:101D9000649F6627B00DA11D661F829F2227B00D8C
:101DA000A11D621F739FB00DA11D621F839FA00D17
:101DB000611D221F749F3327A00D611D231F849F67
:101DC000600D211D822F762F6A2F11249F575040BE
:101DD0009AF0F1F088234AF0EE0FFF1FBB1F661F39
:101DE000771F881F91505040A9F79E3F510580F002
:101DF0000C944C0E0C94970E5F3FE4F3983ED4F392
:101E0000869577956795B795F795E7959F5FC1F7A5
:101E1000FE2B880F911D9695879597F908950E943E
:101E2000280E880B990B089581E090E0F8940C94AB
:061E3000190FF894FFCF2A
:101E3600FB01FB01015E00BC0077010000000065AC
:101E460001EC062E010C012001AC016E616E0069E9
:0C1E56006E66006F7666002E000D0A001C
:00000001FF
