:100000000C94E2000C9479050C9452050C940A01AE
:100010000C940A010C940A010C940A010C940A0134
:100020000C940A010C940A010C940A010C940A0124
:100030000C940A010C9463080C940A010C940A01B4
:100040000C9408050C940A010C94A1030C947B03F6
:100050000C940A010C940A010C940A010C940A01F4
:100060000C940A010C940A010000000023002600F1
:100070002900005EBCE2613FDD83C29C7E20A3FDBF
:100080001F419DC3217FFCA2401E5F01E3BD3E6076
:1000900082DC237D9FC1421CFEA0E1BF5D0380DEA8
:1000A0003C62BEE0025CDF81633D7C22C09E1D435A
:1000B000A1FF4618FAA427799BC584DA3866E5BB08
:1000C0005907DB856739BAE406581947A5FB782636
:1000D000C49A653BD987045AB8E6A7F91B45C69868
:1000E0007A24F8A6441A99C7257B3A6486D85B051A
:1000F000E7B98CD2306EEDB3510F4E10F2AC2F71C8
:1001000093CD114FADF3702ECC92D38D6F31B2ECF5
:100110000E50AFF1134DCE90722C6D33D18F0C5227
:10012000B0EE326C8ED0530DEFB1F0AE4C1291CFD9
:100130002D73CA947628ABF517490856B4EA693787
:10014000D58B5709EBB536688AD495CB2977F4AAB5
:100150004816E9B7550B88D6346A2B7597C94A14E7
:10016000F6A8742AC896154BA9F7B6E80A54D78999
:100170006B3500000000240027002A00000000006A
:10018000250028002B0004040404040404040202D3
:100190000202020203030303030301020408102006
:1001A0004080010204081020010204081020000011
:1001B0000008000201000003040700000000000026
:1001C0000000C50811241FBECFEFD8E0DEBFCDBFB1
:1001D00011E0A0E0B1E0E8E9FFE102C005900D9276
:1001E000AC32B107D9F723E0ACE2B1E001C01D9217
:1001F000A030B207E1F710E0C2EED0E004C02197D2
:10020000FE010E94740DC13ED107C9F70E94620928
:100210000C94CA0F0C940000CF92DF92EF92FF92E1
:100220000F931F93CF93DF936C017A018B01C0E092
:10023000D0E0CE15DF0589F0D8016D918D01D60192
:10024000ED91FC910190F081E02DC6010995892B7B
:1002500011F47E0102C02196ECCFC701DF91CF914E
:100260001F910F91FF90EF90DF90CF900895FC01C8
:10027000918D828D981761F0828DDF01A80FB11DDD
:100280005D968C91928D9F5F9F73928F90E0089501
:100290008FEF9FEF0895FC01918D828D981731F0BB
:1002A000828DE80FF11D858D90E008958FEF9FEF0F
:1002B0000895FC01918D228D892F90E0805C9F4FE5
:1002C000821B91098F739927089584E891E00E9419
:1002D000590121E0892B09F420E0822F0895FC01C7
:1002E000848DDF01A80FB11DA35ABF4F2C91848DBF
:1002F00090E001968F739927848FA689B7892C93F4
:10030000A089B1898C9180648C93938D848D98138E
:1003100006C00288F389E02D80818F7D8083089557
:10032000EF92FF920F931F93CF93DF93EC0181E045
:10033000888F9B8D8C8D981305C0E889F989808101
:1003400085FD24C0F62E0B8D10E00F5F1F4F0F733D
:100350001127E02E8C8DE8120CC00FB607FCFACFE7
:10036000E889F989808185FFF5CFCE010E946F0170
:10037000F1CF8B8DFE01E80FF11DE35AFF4FF082A4
:100380000B8FEA89FB898081806207C0EE89FF8933
:100390006083E889F98980818064808381E090E0CE
:1003A000DF91CF911F910F91FF90EF900895CF9320
:1003B000DF93EC01888D8823C9F0EA89FB8980816D
:1003C00085FD05C0A889B9898C9186FD0FC00FB63F
:1003D00007FCF5CF808185FFF2CFA889B9898C9180
:1003E00085FFEDCFCE010E946F01E7CFDF91CF9166
:1003F000089580E090E0892B29F00E946501811129
:100400000C9400000895009769F0FC010190002011
:10041000E9F73197AF01481B590BBC0184E891E023
:100420000C940C0180E090E008958F929F92AF921F
:10043000BF920F931F93CF93DF93CDB7DEB7A197F2
:100440000FB6F894DEBF0FBECDBF19A2423008F43C
:100450004AE08E010F5D1F4F842E912CA12CB12CF0
:10046000A50194010E94330DE62FB901CA01015084
:100470001109EA3014F4E05D01C0E95CD801EC93A5
:10048000232B242B252B61F7C8010E940302A19680
:100490000FB6F894DEBF0FBECDBFDF91CF911F9195
:1004A0000F91BF90AF909F908F9008950E94C50FBD
:1004B000AF92BF92CF92DF92EF92FF920F931F9372
:1004C000CF93DF931F92CDB7DEB75C01D62EE72E18
:1004D000FC018585811105C0C5010E946F0681114F
:1004E00006C0F50113861586148680E065C040E0DD
:1004F00060EFC5010E94000601E0F12CC12C11E063
:10050000C5010E94AD05682FC50169830E94AD0534
:100510006981613019F48130B9F433C04F2D50E056
:1005200068131BC0F5018385181730F4E40FF51F1D
:100530008381802349F402C0181731F060E019303C
:1005400058F4F501148708C0F501EF0DF11D838102
:10055000802B838361E009C0C12EF501E40FF51FF4
:100560009381802F809589238383C5010E94D105C3
:100570001F5F000F11F4F39401E0F7E0FF1508F09E
:10058000BFCF113408F4ADCFF501C386C11002C04E
:1005900081E08587F5018381882309F4A2CFD50105
:1005A0001396ED2DFE2D9501255F3F4F8D91819383
:1005B000A217B307D9F781E00F90DF91CF911F9178
:1005C0000F91FF90EF90DF90CF90BF90AF90089584
:1005D0000F931F93CF93DF93CDB7DEB761970FB61D
:1005E000F894DEBF0FBECDBF8C01DC011596ED91F6
:1005F000FC911697138615861486DF011B96339699
:100600001E92AE17BF07E1F7BE01665F7F4FF8018C
:10061000858196810E945802882341F067E0CE01CF
:100620000A960E94A0059989891729F060E070E078
:100630008EEF92EC55C0AE014F5F5F4FBE01665F1B
:100640007F4FC8010E940207882309F446C068E072
:10065000CE0101960E94A005998589133EC069814B
:1006600088E0689FB00111248A81282F30E0322F62
:100670002227330F330F330F262B372B8A858031F8
:1006800051F5688570E08F81AB01481B5109CA01A3
:100690009695982F8827979587950E941F0D6051F2
:1006A0007109207F53E0220F331F5A95E1F7620F43
:1006B000731F613854EE75070CF4B8CF072E000C89
:1006C000880B990B0E949E0E20E030E040E05CE336
:1006D0000E94530F05C0B901ECCF60E874EEE9CF7A
:1006E00061960FB6F894DEBF0FBECDBFDF91CF91FC
:1006F0001F910F9108951F920F920FB60F92112420
:100700002F933F934F935F936F937F938F939F9319
:10071000AF93BF93EF93FF9384E891E00E946F0142
:10072000FF91EF91BF91AF919F918F917F916F91C9
:100730005F914F913F912F910F900FBE0F901F909F
:1007400018951F920F920FB60F9211242F938F932B
:100750009F93EF93FF93E0919401F0919501808135
:10076000E0919A01F0919B0182FD12C090818091ED
:100770009D018F5F8F7320919E01821751F0E09150
:100780009D01F0E0EC57FE4F958F80939D0101C0D5
:100790008081FF91EF919F918F912F910F900FBECC
:1007A0000F901F9018959FB7F8944091FC025091BC
:1007B000FD026091FE027091FF0286B5A89B06C003
:1007C0008F3F21F04F5F5F4F6F4F7F4F9FBF762F5F
:1007D000652F542F44279A01AB01280F311D411D6D
:1007E000511DA5E0B0E00E94550D089508950895AB
:1007F000809130018F5F8093300108952FB7F89476
:100800008091F8029091F902A091FA02B091FB0256
:100810002FBF8093F3029093F402A093F502B0935C
:10082000F6028091F3029091F402A091F502B0914A
:10083000F6024091EF025091F0026091F102709146
:10084000F202841B950BA60BB70B0B97A105B10504
:10085000A8F08091EB029091EC02A091ED02B09192
:10086000EE028093EF029093F002A093F102B09316
:10087000F20280912F018F5F80932F0108952FB78F
:10088000F8948091F8029091F902A091FA02B09147
:10089000FB022FBF8093EB029093EC02A093ED023A
:1008A000B093EE028091EB029091EC02A091ED02E8
:1008B000B091EE024091E7025091E8026091E902A6
:1008C0007091EA02841B950BA60BB70B0B97A10541
:1008D000B105A8F08091EB029091EC02A091ED029D
:1008E000B091EE028093E7029093E802A093E902B0
:1008F000B093EA0280912E018F5F80932E010895BC
:1009000090E0FC01E255FE4F3491FC01E656FE4FAB
:100910002491FC01EA57FE4FE491EE2309F43BC019
:10092000332339F1333091F038F43130A9F03230DB
:1009300001F584B58F7D12C0373091F03830A1F0C9
:100940003430B9F4809180008F7D03C080918000A5
:100950008F77809380000DC084B58F7784BD09C0E8
:100960008091B0008F7703C08091B0008F7D80931D
:10097000B000F0E0EE0FFF1FE458FE4FA591B491D8
:100980008FB7F894EC91611103C020952E2301C01C
:100990002E2B2C938FBF0895CF93DF9390E0FC0113
:1009A000E656FE4F2491FC01EA57FE4F84918823BE
:1009B00061F190E0880F991FFC01EE58FE4FC59140
:1009C000D491FC01E458FE4FA591B491611109C086
:1009D0009FB7F8948881209582238883EC912E23F9
:1009E0000BC0623061F49FB7F8943881822F8095F4
:1009F00083238883EC912E2B2C939FBF06C08FB747
:100A0000F894E8812E2B28838FBFDF91CF91089532
:100A10001F920F920FB60F9211242F933F938F9333
:100A20009F93AF93BF938091F8029091F902A091A8
:100A3000FA02B091FB023091F7022DE3230F2D371C
:100A400020F40196A11DB11D05C020EC230F0296D4
:100A5000A11DB11D2093F7028093F8029093F90233
:100A6000A093FA02B093FB028091FC029091FD02E8
:100A7000A091FE02B091FF020196A11DB11D8093CD
:100A8000FC029093FD02A093FE02B093FF02BF917F
:100A9000AF919F918F913F912F910F900FBE0F902B
:100AA0001F9018951F920F920FB60F9211242F933B
:100AB0003F934F935F936F937F938F939F93AF93E6
:100AC000BF93EF93FF93E0910201F0910301099529
:100AD000FF91EF91BF91AF919F918F917F916F9116
:100AE0005F914F913F912F910F900FBE0F901F90EC
:100AF00018951F920F920FB60F9211242F933F93C8
:100B00004F935F936F937F938F939F93AF93BF9315
:100B1000EF93FF93E0910001F09101010995FF919E
:100B2000EF91BF91AF919F918F917F916F915F9165
:100B30004F913F912F910F900FBE0F901F901895DE
:100B4000DC01E0E0615038F08D91E827F0E0EE58EC
:100B5000FF4FE491F7CF8E2F0895FC019081018023
:100B6000F281E02DF8948181892B81832281892F64
:100B7000809528232283A2E0B0E01197F1F721812C
:100B800082238183A0E1B0E01197F1F7808178940E
:100B9000E6E6F0E03197F1F7982381E009F480E090
:100BA0000895FC0190810180F281E02D892F8095CC
:100BB00060FF12C0F8942281822382838181892B75
:100BC0008183A0E1B0E01197F1F78281982B9283A5
:100BD00078948AE690E011C0F8942281822382837F
:100BE0008181892B8183AEE7B0E01197F1F7828193
:100BF000982B9283789486E090E00197F1F708951E
:100C0000CF92DF92EF92FF920F931F93CF93DF93D8
:100C10001F92CDB7DEB76C01E62E08E010E0FF248E
:100C2000F39461E08F2D8E2109F460E0C6014983C1
:100C30000E94D105FF0C01501109498101151105D0
:100C400081F7411115C0F894D6011196ED91FC91F0
:100C5000129791818C918095892381831196ED91D2
:100C6000FC91129792818C9180958923828378944C
:100C70000F90DF91CF911F910F91FF90EF90DF9038
:100C8000CF900895CF92DF92EF92FF920F931F9330
:100C9000CF93DF931F92CDB7DEB78C01F62E40E0E5
:100CA00065E579830E940006CF2C7981D72E7601E5
:100CB00088E0E80EF11CF60161916F0140E0C80187
:100CC0000E940006CE14DF04B1F70F90DF91CF91A0
:100CD0001F910F91FF90EF90DF90CF900895FC014E
:100CE00090810180F281E02DF8948181292F209557
:100CF0008223818378948DE7815009F130813923F3
:100D0000D9F3F8948281822382838181892B818324
:100D10007894ACEBB3E01197F1F7F8948181282334
:100D20002183A8E8B0E01197F1F78081982381E052
:100D300009F080E07894E0E3F3E03197F1F708956B
:100D40008F929F92AF92BF92CF92DF92EF92FF92DB
:100D5000CF93DF93EC018D819E810E946F0640E06E
:100D60006CEC8D819E810E940006488164E48D8137
:100D70009E810E9400068A818823C9F1E981E95099
:100D8000E33040F4F0E0EE0FFF1FEB5EFE4F80819A
:100D9000918102C08EEE92E06C01990FEE08FF087F
:100DA0000E94D3034B015C01C114D104E104F1049E
:100DB000F1F00E94D303DC01CB0188199909AA093B
:100DC000BB09883E9340A105B10570F321E0C21A2A
:100DD000D108E108F10888EE880E83E0981EA11C76
:100DE000B11CC114D104E104F10419F7DDCFDF9186
:100DF000CF91FF90EF90DF90CF90BF90AF909F90FA
:100E00008F9008956F927F928F929F92AF92BF9230
:100E1000CF92DF92EF92FF920F931F93CF93DF93C6
:100E200000D0CDB7DEB78C017A01FC0185819681B7
:100E300069837A830E946F0669817A81882391F1A0
:100E4000F801858196810E94420640E06EEBF80130
:100E5000858196810E94000637015701F9E0AF0EA7
:100E6000B11CF8018580968088E0C82ED12CEE2434
:100E7000E394F12CC4010E94AD058111FE28EE0C13
:100E8000F1E0CF1AD108B1F7F301F1923F01EA1571
:100E9000FB0539F7F801858196810E946F0691E084
:100EA000813009F090E0892F0F900F90DF91CF9162
:100EB0001F910F91FF90EF90DF90CF90BF90AF9078
:100EC0009F908F907F906F900895CF93DF93CDB7D1
:100ED000DEB729970FB6F894DEBF0FBECDBFFB017A
:100EE0002081203119F1AE014F5F5F4F0E94020750
:100EF000882379F068E0CE0101960E94A0059985CB
:100F0000891307C008C0803458F08F3569F08F37D7
:100F100069F080E00CC08D818F33A9F78AE007C0AB
:100F20008F31B9F789E003C08BE001C08CE02996CE
:100F30000FB6F894DEBF0FBECDBFDF91CF910895FD
:100F4000EF92FF920F931F93CF93DF93CDB7DEB74E
:100F500061970FB6F894DEBF0FBECDBF8C01DC01E8
:100F60001596ED91FC911697138615861486DF0170
:100F70001B9633961E92AE17BF07E1F7F801148255
:100F8000FF24F394BE01665F7F4FD80115968D91C3
:100F90009C9116970E945802882309F458C067E074
:100FA000CE010A960E94A00599898913EBCFD8013A
:100FB0008C91811126C015968D919C9116970E9457
:100FC0006F06BE01665F7F4FF801858196810E94A2
:100FD000420640E064EBD80115968D919C911697DE
:100FE0000E940006F801858196810E94AD05E82ED9
:100FF000D80115968D919C9116970E946F06EE2050
:1010000019F1AE014F5F5F4FBE01665F7F4FC801B0
:101010000E940207F801E180BE01665F7F4FC801B0
:101020000E9465078E1520F4D80111968C9106C098
:10103000BE01665F7F4FC8010E946507F80181838A
:1010400084818F5F84839ECFF801F082DACF61962E
:101050000FB6F894DEBF0FBECDBFDF91CF911F91C9
:101060000F91FF90EF9008950F931F93CF93DF930D
:10107000EC01162F60E0812F0E94CC04612F70E0FC
:10108000FB01E656FE4FE491E883FB01EA57FE4F71
:10109000E491F0E0EE0FFF1FE859FF4F8591949126
:1010A0009A8389831B861D861C86FE013B968E01D2
:1010B0000D5F1F4F1292E017F107E1F7DF91CF911B
:1010C0001F910F9108951F920F920FB60F92112446
:1010D0002F933F934F935F936F937F938F939F9340
:1010E000AF93BF93EF93FF93E0912C01F0912D010B
:1010F0000995FF91EF91BF91AF919F918F917F9152
:101100006F915F914F913F912F910F900FBE0F9074
:101110001F9018950F931F9392EF980F8E3008F041
:10112000892F982F977080E200E010E0980140919D
:10113000040160E4469FA0011124492B40937C00E8
:1011400040917A00406440937A0040917A0046FDD5
:10115000FCCF409178006091790050E0562B052E2D
:10116000000C660B770B040F151F261F371F8150CD
:10117000F1F6D901C80125E0B695A7959795879511
:101180002A95D1F71F910F910895E4E8F1E01382B9
:10119000128288EE93E0A0E0B0E084839583A6837A
:1011A000B78389E091E09183808385EC90E0958717
:1011B000848784EC90E09787868780EC90E0918B21
:1011C000808B81EC90E0938B828B82EC90E0958B0E
:1011D000848B86EC90E0978B868B118E128E138E0B
:1011E000148E68E089ED92E00E94340869E08BEC8F
:1011F00092E00E9434086AE08DEB92E00E9434088D
:101200006BE08FEA92E00E9434086CE081EA92E0A1
:101210000E9434086DE083E992E00E943408E0E81F
:10122000F2E027EF33E0328B218B89ED92E0968359
:1012300085831482108299E0918381E08283838385
:10124000EDE6F2E0328B218B4BEC52E05683458386
:1012500014821082918382838383EAE5F2E0328BE9
:10126000218B4DEB52E0568345831482108291838B
:1012700082838383E7E4F2E0328B218B4FEA52E0F2
:101280005683458314821082918382838383E4E3AF
:10129000F2E0328B218B41EA52E05683458314827F
:1012A0001082918382838383E1E2F2E0328B218B8F
:1012B00023E932E03683258314821082918382836E
:1012C00083830895789484B5826084BD84B58160F9
:1012D00084BD85B5826085BD85B5816085BD809101
:1012E0006E00816080936E00109281008091810079
:1012F0008260809381008091810081608093810071
:10130000809180008160809380008091B100846032
:101310008093B1008091B00081608093B000809193
:101320007A00846080937A0080917A008260809352
:101330007A0080917A008E7F80937A0080917A0083
:10134000806880937A001092C100E0919401F0913E
:10135000950182E08083E0919001F09191011082EB
:10136000E0919201F09193018BE0808310929C01B7
:10137000E0919801F091990186E08083E0919601D7
:10138000F0919701808180618083E0919601F091D6
:101390009701808188608083E0919601F0919701A8
:1013A000808180688083E0919601F091970180812F
:1013B0008F7D808361E084E00E94CC0460E084E063
:1013C0000E94800460E082E00E94CC0460E082E041
:1013D0000E9480048FE394E09093010180930001C8
:1013E00080916900836080936900E89A60E083E0FF
:1013F0000E94CC0460E083E00E9480048EEF93E0C2
:101400009093030180930201809169008C60809326
:101410006900E99A80E1809381001092800084E065
:10142000809333018BE49CE49093320180933101EB
:10143000909387008093860084E18093810088EFF9
:1014400093E090932D0180932C0181E080936F00B5
:10145000789480E892E00E94A0078DE692E00E94D6
:10146000A0078AE592E00E94A00787E492E00E942C
:10147000A00784E392E00E94A00781E292E00E942C
:10148000A0071092820210926F0210925C021092DA
:101490004902109236021092230283E080930401E5
:1014A000809130018F3241F461E084E00E94800439
:1014B00060E084E00E948004809130018033C1F4B8
:1014C00080E892E00E94A0068DE692E00E94A006CD
:1014D0008AE592E00E94A00687E492E00E94A006BE
:1014E00084E392E00E94A00681E292E00E94A006BE
:1014F00080913001823309F048C080E892E00E9478
:10150000E8026093540170935501809356019093C3
:1015100057018DE692E00E94E802609358017093B3
:10152000590180935A0190935B018AE592E00E94F1
:10153000E80260935C0170935D0180935E0190937B
:101540005F0187E492E00E94E8026093600170937B
:101550006101809362019093630184E392E00E94B1
:10156000E802609364017093650180936601909333
:10157000670181E292E00E94E80260936801709343
:10158000690180936A0190936B01809130018C33E3
:1015900008F452C21092300160912E0170E080E098
:1015A00090E00E949C0E24E83DE04FE85EE30E943C
:1015B000530F6093340170933501809336019093FB
:1015C000370110922E0160912F0170E080E090E0D1
:1015D0000E949C0E2AE939E949E150E40E94530F28
:1015E00020E030E040E752E40E94FB0D4B015C013B
:1015F000609338017093390180933A0190933B01D5
:1016000010922F012091800130918101409182013F
:10161000509183010E944E0F181644F4809280016D
:1016200090928101A0928201B09283018EE090E0BD
:101630000E948A088930910508F447C08B309105D3
:1016400008F44AC08E30910508F44DC085319105EB
:1016500008F450C08132910508F454C08C329105D1
:1016600008F457C08234910508F45BC08D359105AC
:1016700008F45EC08938910508F461C0893B910582
:1016800008F464C0853E910508F468C0813421E007
:10169000920708F46AC0873A21E0920708F46DC007
:1016A0008B3322E0920708F46CC0853523E0920763
:1016B00008F46FC08115944008F072C0C12CD12C81
:1016C00017E8E12E13E4F12E6BC0C12CD12CD1EE22
:1016D000ED2ED2E4FD2E64C0C12CD12CC7E8EC2E37
:1016E000C2E4FC2E5DC0C12CD12CB4EBEB2EB2E4D5
:1016F000FB2E56C0C12CA0E8DA2EADE1EA2EA3E401
:10170000FA2E4EC0C12CD12CF7E0EF2EF3E4FF2EC1
:1017100047C0C12CE0E8DE2EEAE4EE2EE3E4FE2E24
:101720003FC0C12CD12C74E3E72E73E4F72E38C0F0
:10173000C12CD12C64EBE62E61E4F62E31C0C12C15
:10174000D12C54E3E52E52E4F52E2AC0C12C40E8FA
:10175000D42E47E7E42E43E4F42E22C0C12CD12C32
:1017600031E6E32E33E4F32E1BC0C12C20ECD22E45
:1017700028EAE22E23E4F22E13C0C12CD12C7601EC
:101780000FC0C12C90E4D92E92E9E92E93E4F92EF2
:1017900007C0C12C80E8D82E8DE9E82E83E4F82E0E
:1017A000C0923C01D0923D01E0923E01F0923F0197
:1017B00082E190E00E948A08BC0180E090E00E94F3
:1017C0009C0E2AE037ED43E25CE30E94530F6093E6
:1017D00040017093410180934201909343018FE057
:1017E00090E00E948A08BC0180E090E00E949C0E7C
:1017F00026EA3EE74EED5BE30E94530F60936C01D7
:1018000070936D0180936E0190936F0180E190E081
:101810000E948A08BC0180E090E00E949C0E2BE1AF
:101820003FE24DED5BE30E94530F609370017093B4
:101830007101809372019093730181E190E00E94A5
:101840008A08BC0180E090E00E949C0E26EA3EE7F8
:101850004EED5BE30E94530F60937401709375012A
:10186000809376019093770183E190E00E948A084B
:10187000BC0180E090E00E949C0E2FE836E34EE829
:101880005BE30E94530F609378017093790180931A
:101890007A0190937B0120E030E040E250E40E9426
:1018A000890D20E030E048EC52E40E94530F28E913
:1018B00039E949ED5FE30E94FB0D60937C01709371
:1018C0007D0180937E0190937F01C4E3D1E010E01D
:1018D00089909990A990B990A5019401C501B4018E
:1018E0000E94C00F882319F08BE191E01AC02401F7
:1018F0003501E89477F82FEF3FEF4FE75FE7C3013B
:10190000B2010E94C00F81110FC02FEF3FEF4FE7D0
:101910005FE7C301B2010E94F60D18162CF48FE1A7
:1019200091E00E9403027BC02FEF3FEF4FE75FE49F
:10193000C501B4010E944E0F18161CF483E291E019
:10194000F0CF2FEF3FEF4FE75FECC501B4010E94EE
:10195000F60D87FDF3CF20E030E0A901C501B40109
:101960000E94F60D87FF0FC0E0918401F091850180
:101970000190F081E02D6DE284E891E00995B7FADD
:10198000B094B7F8B0942AE037ED43EA5BE3C501C1
:10199000B4010E948A0D2B013C010E946D0E4B0187
:1019A0005C010E949C0E9B01AC01C301B2010E942C
:1019B000890D2B013C014AE0C501B4010E941502CA
:1019C00087E291E00E94030220E030E040E251E42F
:1019D000C301B2010E94530F2B013C010E946D0E06
:1019E0004B01A12CB12C4AE0C501B4010E941502A3
:1019F000C501B4010E949C0E9B01AC01C301B20160
:101A00000E94890D20E030E040E251E40E94530F33
:101A10000E946D0E80E090E04AE00E9415021F5F78
:101A2000143131F060E284E891E00E94900150CFDF
:101A300089E291E00E9403020E94F90131CD97FBF7
:101A4000072E16F4009407D077FD09D00E94600D90
:101A500007FC05D03EF4909581959F4F08957095B1
:101A600061957F4F0895A1E21A2EAA1BBB1BFD01B1
:101A70000DC0AA1FBB1FEE1FFF1FA217B307E4076D
:101A8000F50720F0A21BB30BE40BF50B661F771FC5
:101A9000881F991F1A9469F76095709580959095A5
:101AA0009B01AC01BD01CF0108950E947A0DA59F55
:101AB000900DB49F900DA49F800D911D1124089549
:101AC000AA1BBB1B51E107C0AA1FBB1FA617B70764
:101AD00010F0A61BB70B881F991F5A95A9F7809580
:101AE0009095BC01CD010895EE0FFF1F0590F49174
:101AF000E02D0994A29FB001B39FC001A39F700D78
:101B0000811D1124911DB29F700D811D1124911D05
:101B100008955058BB27AA270E94A10D0C94140FBA
:101B20000E94060F38F00E940D0F20F039F49F3FFD
:101B300019F426F40C94030F0EF4E095E7FB0C94D3
:101B4000FD0EE92F0E94250F58F3BA17620773079D
:101B50008407950720F079F4A6F50C94470F0EF44E
:101B6000E0950B2EBA2FA02D0B01B90190010C01AD
:101B7000CA01A0011124FF27591B99F0593F50F4C5
:101B8000503E68F11A16F040A22F232F342F44271D
:101B9000585FF3CF469537952795A795F040539515
:101BA000C9F77EF41F16BA0B620B730B840BBAF0E5
:101BB0009150A1F0FF0FBB1F661F771F881FC2F750
:101BC0000EC0BA0F621F731F841F48F48795779564
:101BD0006795B795F7959E3F08F0B0CF9395880F1E
:101BE00008F09927EE0F9795879508950E94D90ED2
:101BF00008F481E008950E940F0E0C94140F0E94C7
:101C00000D0F58F00E94060F40F029F45F3F29F0B5
:101C10000C94FD0E51110C94480F0C94030F0E946C
:101C2000250F68F39923B1F3552391F3951B550BB9
:101C3000BB27AA2762177307840738F09F5F5F4F9F
:101C4000220F331F441FAA1FA9F335D00E2E3AF0DE
:101C5000E0E832D091505040E695001CCAF72BD0F6
:101C6000FE2F29D0660F771F881FBB1F2617370747
:101C70004807AB07B0E809F0BB0B802DBF01FF2779
:101C800093585F4F3AF09E3F510578F00C94FD0E4B
:101C90000C94480F5F3FE4F3983ED4F38695779514
:101CA0006795B795F7959F5FC9F7880F911D969532
:101CB000879597F90895E1E0660F771F881FBB1F8E
:101CC000621773078407BA0720F0621B730B840B3B
:101CD000BA0BEE1F88F7E09508950E942D0F88F04B
:101CE0009F5798F0B92F9927B751B0F0E1F0660FE0
:101CF000771F881F991F1AF0BA95C9F714C0B13021
:101D000091F00E94470FB1E008950C94470F672FA0
:101D1000782F8827B85F39F0B93FCCF3869577954F
:101D20006795B395D9F73EF4909580957095619538
:101D30007F4F8F4F9F4F0895E89409C097FB3EF463
:101D400090958095709561957F4F8F4F9F4F992308
:101D5000A9F0F92F96E9BB279395F6958795779586
:101D60006795B795F111F8CFFAF4BB0F11F460FF46
:101D70001BC06F5F7F4F8F4F9F4F16C0882311F09E
:101D800096E911C0772321F09EE8872F762F05C0B2
:101D9000662371F096E8862F70E060E02AF09A954D
:101DA000660F771F881FDAF7880F9695879597F942
:101DB0000895990F0008550FAA0BE0E8FEEF1616DC
:101DC0001706E807F907C0F012161306E407F5072F
:101DD00098F0621B730B840B950B39F40A2661F0A3
:101DE000232B242B252B21F408950A2609F4A14046
:101DF000A6958FEF811D811D089597F99F6780E853
:101E000070E060E008959FEF80EC089500240A944C
:101E10001616170618060906089500240A941216C5
:101E20001306140605060895092E0394000C11F4F8
:101E3000882352F0BB0F40F4BF2B11F460FF04C0A5
:101E40006F5F7F4F8F4F9F4F089557FD9058440FFE
:101E5000551F59F05F3F71F04795880F97FB991F09
:101E600061F09F3F79F087950895121613061406C6
:101E7000551FF2CF4695F1DF08C016161706180653
:101E8000991FF1CF86957105610508940895E8942E
:101E9000BB2766277727CB0197F908950E94D90EB3
:101EA00008F48FEF08950E94660F0C94140F0E949F
:101EB000060F38F00E940D0F20F0952311F00C94BE
:101EC000FD0E0C94030F11240C94480F0E94250F53
:101ED00070F3959FC1F3950F50E0551F629FF0017D
:101EE000729FBB27F00DB11D639FAA27F00DB11D96
:101EF000AA1F649F6627B00DA11D661F829F22271F
:101F0000B00DA11D621F739FB00DA11D621F839FA5
:101F1000A00D611D221F749F3327A00D611D231F7B
:101F2000849F600D211D822F762F6A2F11249F57C9
:101F300050409AF0F1F088234AF0EE0FFF1FBB1FCC
:101F4000661F771F881F91505040A9F79E3F51058B
:101F500080F00C94FD0E0C94480F5F3FE4F3983E24
:101F6000D4F3869577956795B795F795E7959F5F35
:101F7000C1F7FE2B880F911D9695879597F90895C7
:101F80000E94D90E880B990B089581E090E0F89497
:081F90000C94CA0FF894FFCF76
:101F9800F603F603010000000090010C0159013717
:101FA800014B01D7015E00BC0077016E616E0069CC
:0C1FB8006E66006F7666002E000D0A00B9
:00000001FF
