:100000000C945D000C94BB030C9494030C94850039
:100010000C9485000C9485000C9485000C9485004C
:100020000C9485000C9485000C9485000C9485003C
:100030000C9485000C94E2030C9485000C948500CC
:100040000C944A030C9485000C9418030C94F2024F
:100050000C9485000C9485000C9485000C9485000C
:100060000C9485000C9485000000000024002700FB
:100070002A0000000000250028002B0004040404CE
:100080000404040402020202020203030303030342
:10009000010204081020408001020408102001021F
:1000A00004081020000000080002010000030407FB
:1000B0000000000000000000D00511241FBECFEF9B
:1000C000D8E0DEBFCDBF11E0A0E0B1E0E0EDF0E1AF
:1000D00002C005900D92A632B107D9F722E0A6E240
:1000E000B1E001C01D92A633B207E1F710E0CDE503
:1000F000D0E004C02197FE010E941F06CC35D10735
:10010000C9F70E9409040C9466080C940000CF9271
:10011000DF92EF92FF920F931F93CF93DF936C01C7
:100120007A018B01C0E0D0E0CE15DF0589F0D8015F
:100130006D918D01D601ED91FC910190F081E02D42
:10014000C6010995892B11F47E0102C02196ECCFDE
:10015000C701DF91CF911F910F91FF90EF90DF903A
:10016000CF900895FC01918D828D981761F0828D5A
:10017000DF01A80FB11D5D968C91928D9F5F9F73DB
:10018000928F90E008958FEF9FEF0895FC01918D7D
:10019000828D981731F0828DE80FF11D858D90E0EA
:1001A00008958FEF9FEF0895FC01918D228D892F87
:1001B00090E0805C9F4F821B91098F73992708956F
:1001C00089E991E00E94D40021E0892B09F420E024
:1001D000822F0895FC01848DDF01A80FB11DA35A61
:1001E000BF4F2C91848D90E001968F739927848F57
:1001F000A689B7892C93A089B1898C9180648C934E
:10020000938D848D981306C00288F389E02D808138
:100210008F7D80830895EF92FF920F931F93CF936A
:10022000DF93EC0181E0888F9B8D8C8D981305C046
:10023000E889F989808185FD24C0F62E0B8D10E0B8
:100240000F5F1F4F0F731127E02E8C8DE8120CC02B
:100250000FB607FCFACFE889F989808185FFF5CFD1
:10026000CE010E94EA00F1CF8B8DFE01E80FF11D57
:10027000E35AFF4FF0820B8FEA89FB89808180620D
:1002800007C0EE89FF896083E889F98980818064ED
:10029000808381E090E0DF91CF911F910F91FF90DB
:1002A000EF900895CF93DF93EC01888D8823C9F0F8
:1002B000EA89FB89808185FD05C0A889B9898C916F
:1002C00086FD0FC00FB607FCF5CF808185FFF2CF0A
:1002D000A889B9898C9185FFEDCFCE010E94EA00F3
:1002E000E7CFDF91CF91089580E090E0892B29F04E
:1002F0000E94E00081110C940000089590E0FC0140
:10030000EC55FF4F3491FC01E057FF4F2491FC0165
:10031000E458FF4FE491EE2309F43BC0332339F155
:10032000333091F038F43130A9F0323001F584B532
:100330008F7D12C0373091F03830A1F03430B9F4ED
:10034000809180008F7D03C0809180008F778093A3
:1003500080000DC084B58F7784BD09C08091B00046
:100360008F7703C08091B0008F7D8093B000F0E064
:10037000EE0FFF1FEE58FF4FA591B4918FB7F89481
:10038000EC91611103C020952E2301C02E2B2C93DC
:100390008FBF0895CF93DF9390E0FC01E057FF4FAC
:1003A0002491FC01E458FF4F8491882361F190E08F
:1003B000880F991FFC01E859FF4FC591D491FC01AA
:1003C000EE58FF4FA591B491611109C09FB7F89401
:1003D0008881209582238883EC912E230BC0623084
:1003E00061F49FB7F8943881822F809583238883A6
:1003F000EC912E2B2C939FBF06C08FB7F894E88109
:100400002E2B28838FBFDF91CF910895089580917F
:1004100037018F5F80933701809137018A3028F050
:10042000809198018F5F8093980108952FB7F89479
:1004300080913D0190913E01A0913F01B09140011A
:100440002FBF8093330190933401A0933501B09373
:1004500036018091330190913401A0913501B09122
:10046000360140912F01509130016091310170911E
:100470003201841B950BA60BB70B0B97A105B10599
:10048000D0F080912B0190912C01A0912D01B09181
:100490002E0180932F0190933001A0933101B093EE
:1004A0003201809197018F5F8093970180912A019B
:1004B0008F5F80932A0108952FB7F89480913D01B2
:1004C00090913E01A0913F01B09140012FBF8093D8
:1004D0002B0190932C01A0932D01B0932E018091BC
:1004E0002B0190912C01A0912D01B0912E014091F2
:1004F0002601509127016091280170912901841BE8
:10050000950BA60BB70B0B97A105B105A8F0809131
:100510002B0190912C01A0912D01B0912E0180937F
:10052000260190932701A0932801B093290180917F
:1005300046018F5F809346010895009769F0FC01A2
:1005400001900020E9F73197AF01481B590BBC011E
:1005500089E991E00C94870080E090E008958F9203
:100560009F92AF92BF920F931F93CF93DF93CDB71C
:10057000DEB7A1970FB6F894DEBF0FBECDBF19A2AC
:10058000423008F44AE08E010F5D1F4F842E912CFB
:10059000A12CB12CA50194010E94FD05E62FB90103
:1005A000CA0101501109EA3014F4E05D01C0E95CB0
:1005B000D801EC93232B242B252B61F7C8010E9433
:1005C0009D02A1960FB6F894DEBF0FBECDBFDF919E
:1005D000CF911F910F91BF90AF909F908F900895F2
:1005E0000E9461081F920F920FB60F9211242F9351
:1005F0003F934F935F936F937F938F939F93AF93AB
:10060000BF93EF93FF9389E991E00E94EA00FF9185
:10061000EF91BF91AF919F918F917F916F915F917A
:100620004F913F912F910F900FBE0F901F901895F3
:100630001F920F920FB60F9211242F938F939F93B7
:10064000EF93FF93E091A901F091AA018081E091DD
:10065000AF01F091B00182FD12C090818091B20192
:100660008F5F8F732091B301821751F0E091B20137
:10067000F0E0E756FE4F958F8093B20101C0808174
:10068000FF91EF919F918F912F910F900FBE0F903F
:100690001F9018951F920F920FB60F9211242F934F
:1006A0003F938F939F93AF93BF9380913D01909120
:1006B0003E01A0913F01B091400130913C0123E007
:1006C000230F2D3720F40196A11DB11D05C026E88A
:1006D000230F0296A11DB11D20933C0180933D0183
:1006E00090933E01A0933F01B09340018091380167
:1006F00090913901A0913A01B0913B010196A11D61
:10070000B11D8093380190933901A0933A01B093C1
:100710003B01BF91AF919F918F913F912F910F908E
:100720000FBE0F901F9018951F920F920FB60F9249
:1007300011242F933F934F935F936F937F938F93E6
:100740009F93AF93BF93EF93FF93E0910201F091DA
:1007500003010995FF91EF91BF91AF919F918F9107
:100760007F916F915F914F913F912F910F900FBEAD
:100770000F901F9018951F920F920FB60F92112491
:100780002F933F934F935F936F937F938F939F9399
:10079000AF93BF93EF93FF93E0910001F0910101BC
:1007A0000995FF91EF91BF91AF919F918F917F91AB
:1007B0006F915F914F913F912F910F900FBE0F90CE
:1007C0001F9018951F920F920FB60F9211242F931E
:1007D0003F934F935F936F937F938F939F93AF93C9
:1007E000BF93EF93FF93E0914101F091420109958E
:1007F000FF91EF91BF91AF919F918F917F916F91F9
:100800005F914F913F912F910F900FBE0F901F90CE
:100810001895789484B5826084BD84B5816084BD68
:1008200085B5826085BD85B5816085BD80916E008E
:10083000816080936E0010928100809181008260BF
:1008400080938100809181008160809381008091FC
:1008500080008160809380008091B10084608093EB
:10086000B1008091B00081608093B00080917A00E7
:10087000846080937A0080917A00826080937A000D
:1008800080917A00816080937A0080917A008068FC
:1008900080937A001092C100E091A901F091AA0121
:1008A00082E08083E091A501F091A6011082E091A1
:1008B000A701F091A801C0E1C0831092B101E091BD
:1008C000AD01F091AE0186E08083E091AB01F09143
:1008D000AC01808180618083E091AB01F091AC013B
:1008E000808188608083E091AB01F091AC018081D0
:1008F00080688083E091AB01F091AC0180818F7DB5
:10090000808361E084E00E94CA0160E084E00E948C
:100910007E0160E082E00E94CA0160E082E00E9405
:100920007E018CE592E0909301018093000180911B
:100930006900836080936900E89A60E083E00E9428
:10094000CA0160E083E00E947E0186E192E090931C
:10095000030180930201809169008C60809369009B
:10096000E99AC09381001092800083E08093450152
:1009700084ED90E39093440180934301909387002A
:100980008093860083E18093810087E092E09093DA
:1009900042018093410181E080936F0078948091BF
:1009A00098018F3241F461E084E00E947E0160E0B2
:1009B00084E00E947E01809198018C3308F4EDC0A0
:1009C000109298016091460170E080E090E00E94F2
:1009D000380724E83DE04FE85EE30E94EF076093AC
:1009E0004701709348018093490190934A01109206
:1009F00046016091970170E080E090E00E94380726
:100A00002AE939E949E150E40E94EF0720E030E0AB
:100A100040E752E40E94970660934B0170934C01AB
:100A200080934D0190934E0110929701C7E4D1E05D
:100A300010E0C990D990E990F990A7019601C701FB
:100A4000B6010E945C08882319F084E191E01AC085
:100A500046015701E894B7F82FEF3FEF4FE75FE704
:100A6000C501B4010E945C0881110FC02FEF3FEF58
:100A70004FE75FE7C501B4010E94920618162CF4F7
:100A800088E191E00E949D027BC02FEF3FEF4FE78E
:100A90005FE4C701B6010E94EA0718161CF48CE156
:100AA00091E0F0CF2FEF3FEF4FE75FECC701B601CA
:100AB0000E94920687FDF3CF20E030E0A901C70134
:100AC000B6010E94920687FF0FC0E0919901F09154
:100AD0009A010190F081E02D6DE289E991E009959C
:100AE000F7FAF094F7F8F0942AE037ED43EA5BE385
:100AF000C701B6010E9426064B015C010E9409074E
:100B00006B017C010E9438079B01AC01C501B40157
:100B10000E9425064B015C014AE0C701B6010E9414
:100B2000AF0280E291E00E949D0220E030E040E2CE
:100B300051E4C501B4010E94EF074B015C010E9422
:100B400009076B01E12CF12C4AE0C701B6010E94B4
:100B5000AF02C701B6010E9438079B01AC01C50175
:100B6000B4010E94250620E030E040E251E40E94FA
:100B7000EF070E94090780E090E04AE00E94AF0280
:100B80001F5F143131F060E289E991E00E940B01AE
:100B900050CF82E291E00E949D020E947401FFCE3C
:100BA000E9E9F1E01382128288EE93E0A0E0B0E080
:100BB00084839583A683B78388E091E091838083C3
:100BC00085EC90E09587848784EC90E09787868712
:100BD00080EC90E0918B808B81EC90E0938B828B0A
:100BE00082EC90E0958B848B86EC90E0978B868BE3
:100BF000118E128E138E148E0895A1E21A2EAA1B46
:100C0000BB1BFD010DC0AA1FBB1FEE1FFF1FA217BC
:100C1000B307E407F50720F0A21BB30BE40BF50BB9
:100C2000661F771F881F991F1A9469F76095709542
:100C3000809590959B01AC01BD01CF010895EE0F09
:100C4000FF1F0590F491E02D09945058BB27AA2767
:100C50000E943D060C94B0070E94A20738F00E9443
:100C6000A90720F039F49F3F19F426F40C949F074C
:100C70000EF4E095E7FB0C949907E92F0E94C10759
:100C800058F3BA17620773078407950720F079F4C1
:100C9000A6F50C94E3070EF4E0950B2EBA2FA02DC9
:100CA0000B01B90190010C01CA01A0011124FF2719
:100CB000591B99F0593F50F4503E68F11A16F04014
:100CC000A22F232F342F4427585FF3CF4695379513
:100CD0002795A795F0405395C9F77EF41F16BA0BD8
:100CE000620B730B840BBAF09150A1F0FF0FBB1F86
:100CF000661F771F881FC2F70EC0BA0F621F731FCF
:100D0000841F48F4879577956795B795F7959E3F2B
:100D100008F0B0CF9395880F08F09927EE0F9795BC
:100D2000879508950E94750708F481E008950E9450
:100D3000AB060C94B0070E94A90758F00E94A207C6
:100D400040F029F45F3F29F00C94990751110C945D
:100D5000E4070C949F070E94C10768F39923B1F33D
:100D6000552391F3951B550BBB27AA2762177307D1
:100D7000840738F09F5F5F4F220F331F441FAA1F65
:100D8000A9F335D00E2E3AF0E0E832D09150504021
:100D9000E695001CCAF72BD0FE2F29D0660F771FCF
:100DA000881FBB1F261737074807AB07B0E809F0B5
:100DB000BB0B802DBF01FF2793585F4F3AF09E3F3A
:100DC000510578F00C9499070C94E4075F3FE4F325
:100DD000983ED4F3869577956795B795F7959F5F7D
:100DE000C9F7880F911D9695879597F90895E1E0C9
:100DF000660F771F881FBB1F621773078407BA0728
:100E000020F0621B730B840BBA0BEE1F88F7E09582
:100E100008950E94C90788F09F5798F0B92F992725
:100E2000B751B0F0E1F0660F771F881F991F1AF0D5
:100E3000BA95C9F714C0B13091F00E94E307B1E050
:100E400008950C94E307672F782F8827B85F39F04F
:100E5000B93FCCF3869577956795B395D9F73EF46E
:100E600090958095709561957F4F8F4F9F4F089516
:100E7000E89409C097FB3EF4909580957095619534
:100E80007F4F8F4F9F4F9923A9F0F92F96E9BB27EA
:100E90009395F695879577956795B795F111F8CF66
:100EA000FAF4BB0F11F460FF1BC06F5F7F4F8F4FD1
:100EB0009F4F16C0882311F096E911C0772321F0C7
:100EC0009EE8872F762F05C0662371F096E8862F5F
:100ED00070E060E02AF09A95660F771F881FDAF7B6
:100EE000880F9695879597F90895990F0008550FE3
:100EF000AA0BE0E8FEEF16161706E807F907C0F0A0
:100F000012161306E407F50798F0621B730B840BA7
:100F1000950B39F40A2661F0232B242B252B21F481
:100F200008950A2609F4A140A6958FEF811D811D21
:100F3000089597F99F6780E870E060E008959FEF5B
:100F400080EC089500240A94161617061806090660
:100F5000089500240A94121613061406050608952F
:100F6000092E0394000C11F4882352F0BB0F40F4B7
:100F7000BF2B11F460FF04C06F5F7F4F8F4F9F4FF7
:100F8000089557FD9058440F551F59F05F3F71F079
:100F90004795880F97FB991F61F09F3F79F08795E0
:100FA0000895121613061406551FF2CF4695F1DF69
:100FB00008C0161617061806991FF1CF86957105F9
:100FC000610508940895E894BB2766277727CB012D
:100FD00097F908950E94750708F48FEF08950E940D
:100FE00002080C94B0070E94A20738F00E94A907DB
:100FF00020F0952311F00C9499070C949F0711246D
:101000000C94E4070E94C10770F3959FC1F3950FFC
:1010100050E0551F629FF001729FBB27F00DB11D7C
:10102000639FAA27F00DB11DAA1F649F6627B00D0C
:10103000A11D661F829F2227B00DA11D621F739FF5
:10104000B00DA11D621F839FA00D611D221F749F03
:101050003327A00D611D231F849F600D211D822F4A
:10106000762F6A2F11249F5750409AF0F1F0882371
:101070004AF0EE0FFF1FBB1F661F771F881F91509E
:101080005040A9F79E3F510580F00C9499070C94AD
:10109000E4075F3FE4F3983ED4F386957795679530
:1010A000B795F795E7959F5FC1F7FE2B880F911DC8
:1010B0009695879597F908950E947507880B990B67
:1010C000089581E090E0F8940C946608F894FFCFBE
:1010D00006020602000000000B018700D400B200E7
:1010E000C60052016E616E00696E66006F76660022
:0610F0002E000D0A0000B5
:00000001FF
