:100000000C94E2000C9448080C9421080C940A010A
:100010000C940A010C940A010C940A010C940A0134
:100020000C940A010C940A010C940A010C940A0124
:100030000C940A010C946F080C940A010C940A01A8
:100040000C94D7070C940A010C94A5070C947F0715
:100050000C940A010C940A010C940A010C940A01F4
:100060000C940A010C940A010000000023002600F1
:100070002900005EBCE2613FDD83C29C7E20A3FDBF
:100080001F419DC3217FFCA2401E5F01E3BD3E6076
:1000900082DC237D9FC1421CFEA0E1BF5D0380DEA8
:1000A0003C62BEE0025CDF81633D7C22C09E1D435A
:1000B000A1FF4618FAA427799BC584DA3866E5BB08
:1000C0005907DB856739BAE406581947A5FB782636
:1000D000C49A653BD987045AB8E6A7F91B45C69868
:1000E0007A24F8A6441A99C7257B3A6486D85B051A
:1000F000E7B98CD2306EEDB3510F4E10F2AC2F71C8
:1001000093CD114FADF3702ECC92D38D6F31B2ECF5
:100110000E50AFF1134DCE90722C6D33D18F0C5227
:10012000B0EE326C8ED0530DEFB1F0AE4C1291CFD9
:100130002D73CA947628ABF517490856B4EA693787
:10014000D58B5709EBB536688AD495CB2977F4AAB5
:100150004816E9B7550B88D6346A2B7597C94A14E7
:10016000F6A8742AC896154BA9F7B6E80A54D78999
:100170006B3500000000240027002A00000000006A
:10018000250028002B0004040404040404040202D3
:100190000202020203030303030301020408102006
:1001A0004080010204081020010204081020000011
:1001B0000008000201000003040700000000000026
:1001C0000000960811241FBECFEFD8E0DEBFCDBFE0
:1001D00011E0A0E0B1E0E4E3FCE102C005900D9283
:1001E000AC32B107D9F723E0ACE2B1E001C01D9217
:1001F000A130B207E1F710E0C2EED0E004C02197D1
:10020000FE010E94D10BC13ED107C9F70E943309FC
:100210000C94180E0C940000089580919D018F5F3E
:1002200080939D010895CF92DF92EF92FF920F93FA
:100230001F93CF93DF936C017A018B01C0E0D0E074
:10024000CE15DF0589F0D8016D918D01D601ED91B4
:10025000FC910190F081E02DC6010995892B11F4E4
:100260007E0102C02196ECCFC701DF91CF911F9193
:100270000F91FF90EF90DF90CF900895FC01918D4A
:10028000828D981761F0828DDF01A80FB11D5D96F8
:100290008C91928D9F5F9F73928F90E008958FEF66
:1002A0009FEF0895FC01918D828D981731F0828D1A
:1002B000E80FF11D858D90E008958FEF9FEF089571
:1002C000FC01918D228D892F90E0805C9F4F821BD5
:1002D00091098F73992708958EE991E00E9460013A
:1002E00021E0892B09F420E0822F0895FC01848D00
:1002F000DF01A80FB11DA35ABF4F2C91848D90E050
:1003000001968F739927848FA689B7892C93A0892A
:10031000B1898C9180648C93938D848D981306C0E1
:100320000288F389E02D80818F7D80830895EF928C
:10033000FF920F931F93CF93DF93EC0181E0888F9F
:100340009B8D8C8D981305C0E889F989808185FD86
:1003500024C0F62E0B8D10E00F5F1F4F0F73112777
:10036000E02E8C8DE8120CC00FB607FCFACFE8899E
:10037000F989808185FFF5CFCE010E947601F1CF0A
:100380008B8DFE01E80FF11DE35AFF4FF0820B8FBA
:10039000EA89FB898081806207C0EE89FF896083DA
:1003A000E889F98980818064808381E090E0DF9131
:1003B000CF911F910F91FF90EF900895CF93DF930E
:1003C000EC01888D8823C9F0EA89FB89808185FD4D
:1003D00005C0A889B9898C9186FD0FC00FB607FCAE
:1003E000F5CF808185FFF2CFA889B9898C9185FFEF
:1003F000EDCFCE010E947601E7CFDF91CF91089536
:1004000080E090E0892B29F00E946C0181110C940E
:100410000000089590E0FC01E255FE4F3491FC018C
:10042000E656FE4F2491FC01EA57FE4FE491EE237D
:1004300009F43BC0332339F1333091F038F43130D3
:10044000A9F0323001F584B58F7D12C0373091F0BC
:100450003830A1F03430B9F4809180008F7D03C032
:10046000809180008F77809380000DC084B58F7756
:1004700084BD09C08091B0008F7703C08091B00027
:100480008F7D8093B000F0E0EE0FFF1FE458FE4F29
:10049000A591B4918FB7F894EC91611103C02095A8
:1004A0002E2301C02E2B2C938FBF0895CF93DF9363
:1004B00090E0FC01E656FE4F2491FC01EA57FE4F06
:1004C0008491882361F190E0880F991FFC01EE5818
:1004D000FE4FC591D491FC01E458FE4FA591B49113
:1004E000611109C09FB7F894888120958223888381
:1004F000EC912E230BC0623061F49FB7F8943881E1
:10050000822F809583238883EC912E2B2C939FBF81
:1005100006C08FB7F894E8812E2B28838FBFDF9118
:10052000CF9108953FB7F894809142019091430193
:10053000A0914401B091450126B5A89B05C02F3F6D
:1005400019F00196A11DB11D3FBFBA2FA92F982FF9
:100550008827820F911DA11DB11DBC01CD0142E074
:10056000660F771F881F991F4A95D1F70895089540
:10057000DC01E0E0615038F08D91E827F0E0EE58C2
:10058000FF4FE491F7CF8E2F0895FC0190810180F9
:10059000F281E02DF8948181892B81832281892F3A
:1005A000809528232283A7E0B0E01197F1F72181FD
:1005B00082238183A3E2B0E01197F1F780817894E0
:1005C000EFECF0E03197F1F7982381E009F480E057
:1005D0000895FC0190810180F281E02D892F8095A2
:1005E00060FF12C0F8942281822382838181892B4B
:1005F0008183A3E2B0E01197F1F78281982B928377
:10060000789487ED90E011C0F89422818223828350
:100610008181892B8183AFEFB0E01197F1F782815F
:10062000982B928378948FE090E00197F1F70895EA
:10063000CF92DF92EF92FF920F931F93CF93DF93AE
:100640001F92CDB7DEB76C01E62E08E010E0FF2464
:10065000F39461E08F2D8E2109F460E0C601498397
:100660000E94E902FF0C0150110949810115110591
:1006700081F7411115C0F894D6011196ED91FC91C6
:10068000129791818C918095892381831196ED91A8
:10069000FC91129792818C91809589238283789422
:1006A0000F90DF91CF911F910F91FF90EF90DF900E
:1006B000CF900895CF92DF92EF92FF920F931F9306
:1006C000CF93DF931F92CDB7DEB78C01F62E40E0BB
:1006D00065E579830E941803CF2C7981D72E7601A6
:1006E00088E0E80EF11CF60161916F0140E0C8015D
:1006F0000E941803CE14DF04B1F70F90DF91CF9161
:100700001F910F91FF90EF90DF90CF900895FC0123
:1007100090810180F281E02DF8948181292F20952C
:100720008223818378948DE743E050E0815021F16A
:10073000DA011197F1F730813923C1F3F8948281FE
:10074000822382838181892B81837894ABE7B7E010
:100750001197F1F7F894818128232183A3E1B1E077
:100760001197F1F78081982381E009F080E0789477
:10077000E3E6F6E03197F1F708956F927F928F925A
:100780009F92AF92BF92CF92DF92EF92FF920F9320
:100790001F93CF93DF9300D0CDB7DEB78C017A01E2
:1007A000FC018581968169837A830E948703698130
:1007B0007A81882391F1F801858196810E945A03FC
:1007C00040E06EEBF801858196810E9418033701A5
:1007D0005701F9E0AF0EB11CF8018580968088E0E2
:1007E000C82ED12CEE24E394F12CC4010E94C50242
:1007F0008111FE28EE0CF1E0CF1AD108B1F7F30118
:10080000F1923F01EA15FB0539F7F80185819681E0
:100810000E94870391E0813009F090E0892F0F90CA
:100820000F90DF91CF911F910F91FF90EF90DF908C
:10083000CF90BF90AF909F908F907F906F900895D2
:10084000CF93DF93CDB7DEB729970FB6F894DEBF0D
:100850000FBECDBFFB012081203119F1AE014F5FEA
:100860005F4F0E94BD03882379F068E0CE010196B6
:100870000E94B8029985891307C008C0803458F0D7
:100880008F3569F08F3769F080E00CC08D818F3330
:10089000A9F78AE007C08F31B9F789E003C08BE080
:1008A00001C08CE029960FB6F894DEBF0FBECDBF15
:1008B000DF91CF9108950F931F93CF93DF93EC01B6
:1008C000162F60E0812F0E945602612F70E0FB011D
:1008D000E656FE4FE491E883FB01EA57FE4FE491B0
:1008E000F0E0EE0FFF1FE859FF4F859194919A8336
:1008F00089831B861D861C86FE013B968E010D5F3B
:100900001F4F1292E017F107E1F7DF91CF911F918E
:100910000F9108952FB7F89480913E0190913F0177
:10092000A0914001B09141012FBF80933901909374
:100930003A01A0933B01B0933C0180913901909121
:100940003A01A0913B01B0913C0140913501509199
:1009500036016091370170913801841B950BA60B0D
:10096000B70B0B97A105B105D0F0809131019091A3
:100970003201A0913301B0913401809335019093FD
:100980003601A0933701B093380180919C018F5FAD
:1009900080939C01809130018F5F80933001089596
:1009A0002FB7F89480913E0190913F01A0914001B2
:1009B000B09141012FBF8093310190933201A093F8
:1009C0003301B09334018091310190913201A091B3
:1009D0003301B091340140912C0150912D0160916F
:1009E0002E0170912F01841B950BA60BB70B0B9753
:1009F000A105B105A8F08091310190913201A0913B
:100A00003301B091340180932C0190932D01A09378
:100A10002E01B0932F0180914B018F5F80934B018A
:100A20000895AF92BF92CF92DF92EF92FF920F9311
:100A30001F93CF93DF931F92CDB7DEB75C01D62E05
:100A4000E72EFC018585811105C0C5010E94870341
:100A5000811106C0F50113861586148680E065C0F5
:100A600040E060EFC5010E94180301E0F12CC12CA9
:100A700011E0C5010E94C502682FC50169830E946B
:100A8000C5026981613019F48130B9F433C04F2D4A
:100A900050E068131BC0F5018385181730F4E40F8C
:100AA000F51F8381802349F402C0181731F060E0FC
:100AB000193058F4F501148708C0F501EF0DF11D48
:100AC0008381802B838361E009C0C12EF501E40F8F
:100AD000F51F9381802F809589238383C5010E9410
:100AE000E9021F5F000F11F4F39401E0F7E0FF1536
:100AF00008F0BFCF113408F4ADCFF501C386C110A3
:100B000002C081E08587F5018381882309F4A2CFA3
:100B1000D5011396ED2DFE2D9501255F3F4F8D914B
:100B20008193A217B307D9F781E00F90DF91CF919E
:100B30001F910F91FF90EF90DF90CF90BF90AF90FB
:100B400008950F931F93CF93DF93CDB7DEB76197CF
:100B50000FB6F894DEBF0FBECDBF8C01DC01159639
:100B6000ED91FC911697138615861486DF011B966E
:100B700033961E92AE17BF07E1F7BE01665F7F4F47
:100B8000F801858196810E941105882341F067E074
:100B9000CE010A960E94B8029989891729F060E06F
:100BA00070E08EEF92EC55C0AE014F5F5F4FBE011B
:100BB000665F7F4FC8010E94BD03882309F446C0C9
:100BC00068E0CE0101960E94B802998589133EC063
:100BD000698188E0689FB00111248A81282F30E064
:100BE000322F2227330F330F330F262B372B8A85D3
:100BF000803151F5688570E08F81AB01481B510948
:100C0000CA019695982F8827979587950E94870BFC
:100C100060517109207F53E0220F331F5A95E1F78D
:100C2000620F731F613854EE75070CF4B8CF072EAE
:100C3000000C880B990B0E94EC0C20E030E040E0A7
:100C40005CE30E94A10D05C0B901ECCF60E874EE31
:100C5000E9CF61960FB6F894DEBF0FBECDBFDF912E
:100C6000CF911F910F910895EF92FF920F931F93D1
:100C7000CF93DF93CDB7DEB761970FB6F894DEBFA1
:100C80000FBECDBF8C01DC011596ED91FC9116973E
:100C9000138615861486DF011B9633961E92AE17B7
:100CA000BF07E1F7F8011482FF24F394BE01665FE9
:100CB0007F4FD80115968D919C9116970E94110532
:100CC000882309F458C067E0CE010A960E94B80252
:100CD00099898913EBCFD8018C91811126C0159683
:100CE0008D919C9116970E948703BE01665F7F4F8E
:100CF000F801858196810E945A0340E064EBD80197
:100D000015968D919C9116970E941803F801858184
:100D100096810E94C502E82ED80115968D919C916E
:100D200016970E948703EE2019F1AE014F5F5F4FC7
:100D3000BE01665F7F4FC8010E94BD03F801E180DC
:100D4000BE01665F7F4FC8010E9420048E1520F40B
:100D5000D80111968C9106C0BE01665F7F4FC80115
:100D60000E942004F801818384818F5F84839ECF59
:100D7000F801F082DACF61960FB6F894DEBF0FBEAD
:100D8000CDBFDF91CF911F910F91FF90EF9008950C
:100D90008F929F92AF92BF92CF92DF92EF92FF928B
:100DA000CF93DF93EC018D819E810E94870340E009
:100DB0006CEC8D819E810E941803488164E48D81D2
:100DC0009E810E9418038A818823C9F1E981E95034
:100DD000E33040F4F0E0EE0FFF1FEC5FFE4F808148
:100DE000918102C08EEE92E06C01990FEE08FF082F
:100DF0000E9492024B015C01C114D104E104F10490
:100E0000F1F00E949202DC01CB0188199909AA092C
:100E1000BB09883E9340A105B10570F321E0C21AD9
:100E2000D108E108F10888EE880E83E0981EA11C25
:100E3000B11CC114D104E104F10419F7DDCFDF9135
:100E4000CF91FF90EF90DF90CF90BF90AF909F90A9
:100E50008F900895009769F0FC0101900020E9F758
:100E60003197AF01481B590BBC018EE991E00C94FE
:100E7000130180E090E008958F929F92AF92BF920D
:100E80000F931F93CF93DF93CDB7DEB7A1970FB624
:100E9000F894DEBF0FBECDBF19A2423008F44AE07D
:100EA0008E010F5D1F4F842E912CA12CB12CA5011A
:100EB00094010E949B0BE62FB901CA010150110950
:100EC000EA3014F4E05D01C0E95CD801EC93232B17
:100ED000242B252B61F7C8010E942A07A1960FB683
:100EE000F894DEBF0FBECDBFDF91CF911F910F9160
:100EF000BF90AF909F908F9008950E94130E1F9205
:100F00000F920FB60F9211242F933F934F935F933D
:100F10006F937F938F939F93AF93BF93EF93FF93C1
:100F20008EE991E00E947601FF91EF91BF91AF9120
:100F30009F918F917F916F915F914F913F912F91F1
:100F40000F900FBE0F901F9018951F920F920FB623
:100F50000F9211242F938F939F93EF93FF93E09120
:100F6000AE01F091AF018081E091B401F091B50143
:100F700082FD12C090818091B7018F5F8F732091A5
:100F8000B801821751F0E091B701F0E0E256FE4F50
:100F9000958F8093B70101C08081FF91EF919F9160
:100FA0008F912F910F900FBE0F901F9018951F9249
:100FB0000F920FB60F9211242F933F938F939F930D
:100FC000AF93BF9380913E0190913F01A09140016A
:100FD000B091410130913D0123E0230F2D3720F4E2
:100FE0000196A11DB11D05C026E8230F0296A11D83
:100FF000B11D20933D0180933E0190933F01A0934A
:101000004001B09341018091420190914301A09130
:101010004401B09145010196A11DB11D809342018B
:1010200090934301A0934401B0934501BF91AF91C8
:101030009F918F913F912F910F900FBE0F901F9016
:1010400018951F920F920FB60F9211242F933F9372
:101050004F935F936F937F938F939F93AF93BF93C0
:10106000EF93FF93E0910201F09103010995FF9145
:10107000EF91BF91AF919F918F917F916F915F9110
:101080004F913F912F910F900FBE0F901F90189589
:101090001F920F920FB60F9211242F933F934F93ED
:1010A0005F936F937F938F939F93AF93BF93EF93D0
:1010B000FF93E0910001F09101010995FF91EF91FB
:1010C000BF91AF919F918F917F916F915F914F9160
:1010D0003F912F910F900FBE0F901F9018951F9268
:1010E0000F920FB60F9211242F933F934F935F935C
:1010F0006F937F938F939F93AF93BF93EF93FF93E0
:10110000E0914601F09147010995FF91EF91BF9160
:10111000AF919F918F917F916F915F914F913F918F
:101120002F910F900FBE0F901F901895EEE9F1E0F0
:101130001382128288EE93E0A0E0B0E0848395836E
:10114000A683B7838EE091E09183808385EC90E065
:101150009587848784EC90E09787868780EC90E081
:10116000918B808B81EC90E0938B828B82EC90E072
:10117000958B848B86EC90E0978B868B118E128EEC
:10118000138E148E68E083EF92E00E945B0469E0A6
:1011900085EE92E00E945B046AE087ED92E00E9497
:1011A0005B046BE089EC92E00E945B046CE08BEBEB
:1011B00092E00E945B046DE08DEA92E00E945B0485
:1011C000EAE9F2E02CE031E0328B218B83EF92E010
:1011D000968385831482108299E0918381E08283D3
:1011E0008383E7E8F2E0328B218B45EE52E05683B1
:1011F000458314821082918382838383E4E7F2E043
:10120000328B218B47ED52E0568345831482108246
:10121000918382838383E1E6F2E0328B218B49EC78
:1012200052E05683458314821082918382838383A4
:10123000EEE4F2E0328B218B4BEB52E05683458398
:1012400014821082918382838383EBE3F2E0328BFA
:10125000218B2DEA32E0368325831482108291831C
:10126000828383830895789484B5826084BD84B535
:10127000816084BD85B5826085BD85B5816085BD91
:1012800080916E00816080936E0010928100809149
:1012900081008260809381008091810081608093D1
:1012A0008100809180008160809380008091B100F6
:1012B00084608093B1008091B00081608093B00021
:1012C00080917A00846080937A0080917A008260B5
:1012D00080937A0080917A00816080937A00809177
:1012E0007A00806880937A001092C100E091AE018C
:1012F000F091AF0182E08083E091AA01F091AB010F
:101300001082E091AC01F091AD01C0E1C083109278
:10131000B601E091B201F091B30186E08083E091E3
:10132000B001F091B101808180618083E091B001D2
:10133000F091B101808188608083E091B001F091EB
:10134000B101808180688083E091B001F091B101AA
:1013500080818F7D808361E084E00E94560260E09E
:1013600084E00E940A0260E082E00E94560260E08F
:1013700082E00E940A0280ED94E090930101809344
:10138000000180916900836080936900E89A60E0C1
:1013900083E00E94560260E083E00E940A028AE82D
:1013A00094E09093030180930201809169008C6026
:1013B00080936900E99AC09381001092800084E0D4
:1013C00080934A0182E19AE7909349018093480112
:1013D000909387008093860084E1809381008DE064
:1013E00091E0909347018093460181E080936F00E4
:1013F00078948AE992E00E94340687E892E00E949D
:10140000340684E792E00E94340681E692E00E946E
:1014100034068EE492E00E9434068BE392E00E9450
:10142000340610929C021092890210927602109259
:1014300063021092500210923D0280919D018F3202
:1014400041F461E084E00E940A0260E084E00E94CE
:101450000A0280919D018033C1F48AE992E00E94E2
:10146000C80687E892E00E94C80684E792E00E94DE
:10147000C80681E692E00E94C8068EE492E00E94CF
:10148000C8068BE392E00E94C80680919D018233DA
:1014900009F048C08AE992E00E94A10560936C01BE
:1014A00070936D0180936E0190936F0187E892E0D5
:1014B0000E94A10560937001709371018093720185
:1014C0009093730184E792E00E94A10560937401F8
:1014D00070937501809376019093770181E692E095
:1014E0000E94A105609378017093790180937A013D
:1014F00090937B018EE492E00E94A10560937C01B1
:1015000070937D0180937E0190937F018BE392E045
:101510000E94A105609380017093810180938201F4
:101520009093830180919D018C3308F4EDC010925B
:101530009D0160914B0170E080E090E00E94EA0C18
:1015400024E83DE04FE85EE30E94A10D60934C016A
:1015500070934D0180934E0190934F0110924B0177
:1015600060919C0170E080E090E00E94EA0C2AE922
:1015700039E949E150E40E94A10D20E030E040E764
:1015800052E40E94490C6093500170935101809382
:1015900052019093530110929C01CCE4D1E010E0F1
:1015A000C990D990E990F990A7019601C701B601B9
:1015B0000E940E0E882319F08AE191E01AC04601BC
:1015C0005701E894B7F82FEF3FEF4FE75FE7C5010A
:1015D000B4010E940E0E81110FC02FEF3FEF4FE7B5
:1015E0005FE7C501B4010E94440C18162CF48EE18B
:1015F00091E00E942A077BC02FEF3FEF4FE75FE4A7
:10160000C701B6010E949C0D18161CF482E291E0FD
:10161000F0CF2FEF3FEF4FE75FECC701B6010E941D
:10162000440C87FDF3CF20E030E0A901C701B601EB
:101630000E94440C87FF0FC0E0919E01F0919F0132
:101640000190F081E02D6DE28EE991E00995F7FAC5
:10165000F094F7F8F0942AE037ED43EA5BE3C70132
:10166000B6010E94D80B4B015C010E94BB0C6B01C0
:101670007C010E94EA0C9B01AC01C501B4010E94EF
:10168000D70B4B015C014AE0C701B6010E943C0741
:1016900086E291E00E942A0720E030E040E251E437
:1016A000C501B4010E94A10D4B015C010E94BB0C5D
:1016B0006B01E12CF12C4AE0C701B6010E943C0706
:1016C000C701B6010E94EA0C9B01AC01C501B4013F
:1016D0000E94D70B20E030E040E251E40E94A10DCF
:1016E0000E94BB0C80E090E04AE00E943C071F5F34
:1016F000143131F060E28EE991E00E94970150CF01
:1017000088E291E00E942A070E94000296CE97FB91
:10171000072E16F4009407D077FD09D00E94BD0B68
:1017200007FC05D03EF4909581959F4F08957095E4
:1017300061957F4F0895A1E21A2EAA1BBB1BFD01E4
:101740000DC0AA1FBB1FEE1FFF1FA217B307E407A0
:10175000F50720F0A21BB30BE40BF50B661F771FF8
:10176000881F991F1A9469F76095709580959095D8
:101770009B01AC01BD01CF010895AA1BBB1B51E128
:1017800007C0AA1FBB1FA617B70710F0A61BB70BF1
:10179000881F991F5A95A9F780959095BC01CD0196
:1017A0000895EE0FFF1F0590F491E02D0994505815
:1017B000BB27AA270E94EF0B0C94620D0E94540DC8
:1017C00038F00E945B0D20F039F49F3F19F426F4A5
:1017D0000C94510D0EF4E095E7FB0C944B0DE92FA2
:1017E0000E94730D58F3BA176207730784079507B1
:1017F00020F079F4A6F50C94950D0EF4E0950B2EDF
:10180000BA2FA02D0B01B90190010C01CA01A00152
:101810001124FF27591B99F0593F50F4503E68F1AD
:101820001A16F040A22F232F342F4427585FF3CFEE
:10183000469537952795A795F0405395C9F77EF4BF
:101840001F16BA0B620B730B840BBAF09150A1F008
:10185000FF0FBB1F661F771F881FC2F70EC0BA0F8E
:10186000621F731F841F48F4879577956795B79516
:10187000F7959E3F08F0B0CF9395880F08F0992711
:10188000EE0F9795879508950E94270D08F481E043
:1018900008950E945D0C0C94620D0E945B0D58F03F
:1018A0000E94540D40F029F45F3F29F00C944B0D39
:1018B00051110C94960D0C94510D0E94730D68F308
:1018C0009923B1F3552391F3951B550BBB27AA27F9
:1018D00062177307840738F09F5F5F4F220F331F33
:1018E000441FAA1FA9F335D00E2E3AF0E0E832D0FB
:1018F00091505040E695001CCAF72BD0FE2F29D0FE
:10190000660F771F881FBB1F261737074807AB07CF
:10191000B0E809F0BB0B802DBF01FF2793585F4F44
:101920003AF09E3F510578F00C944B0D0C94960DB7
:101930005F3FE4F3983ED4F3869577956795B79526
:10194000F7959F5FC9F7880F911D9695879597F931
:101950000895E1E0660F771F881FBB1F62177307AA
:101960008407BA0720F0621B730B840BBA0BEE1FBF
:1019700088F7E09508950E947B0D88F09F5798F0B6
:10198000B92F9927B751B0F0E1F0660F771F881F84
:10199000991F1AF0BA95C9F714C0B13091F00E949E
:1019A000950DB1E008950C94950D672F782F882739
:1019B000B85F39F0B93FCCF3869577956795B395C5
:1019C000D9F73EF490958095709561957F4F8F4F34
:1019D0009F4F0895E89409C097FB3EF49095809539
:1019E000709561957F4F8F4F9F4F9923A9F0F92FE5
:1019F00096E9BB279395F695879577956795B79563
:101A0000F111F8CFFAF4BB0F11F460FF1BC06F5F48
:101A10007F4F8F4F9F4F16C0882311F096E911C05A
:101A2000772321F09EE8872F762F05C0662371F07B
:101A300096E8862F70E060E02AF09A95660F771F8F
:101A4000881FDAF7880F9695879597F90895990F6B
:101A50000008550FAA0BE0E8FEEF16161706E80778
:101A6000F907C0F012161306E407F50798F0621B99
:101A7000730B840B950B39F40A2661F0232B242B6E
:101A8000252B21F408950A2609F4A140A6958FEF8D
:101A9000811D811D089597F99F6780E870E060E0DF
:101AA00008959FEF80EC089500240A9416161706F7
:101AB00018060906089500240A941216130614063F
:101AC00005060895092E0394000C11F4882352F0A2
:101AD000BB0F40F4BF2B11F460FF04C06F5F7F4F5A
:101AE0008F4F9F4F089557FD9058440F551F59F041
:101AF0005F3F71F04795880F97FB991F61F09F3FFB
:101B000079F087950895121613061406551FF2CF23
:101B10004695F1DF08C0161617061806991FF1CF73
:101B200086957105610508940895E894BB2766279A
:101B30007727CB0197F908950E94270D08F48FEFBE
:101B400008950E94B40D0C94620D0E94540D38F05B
:101B50000E945B0D20F0952311F00C944B0D0C941A
:101B6000510D11240C94960D0E94730D70F3959FE6
:101B7000C1F3950F50E0551F629FF001729FBB2784
:101B8000F00DB11D639FAA27F00DB11DAA1F649F20
:101B90006627B00DA11D661F829F2227B00DA11DD3
:101BA000621F739FB00DA11D621F839FA00D611D59
:101BB000221F749F3327A00D611D231F849F600D7A
:101BC000211D822F762F6A2F11249F5750409AF0A3
:101BD000F1F088234AF0EE0FFF1FBB1F661F771F2F
:101BE000881F91505040A9F79E3F510580F00C94FA
:101BF0004B0D0C94960D5F3FE4F3983ED4F386951D
:101C000077956795B795F795E7959F5FC1F7FE2B99
:101C1000880F911D9695879597F908950E94270D35
:101C2000880B990B089581E090E0F8940C94180EBD
:041C3000F894FFCF56
:101C3400B702B7025E00BC00770100000000970104
:101C4400130160013E015201DE016E616E00696E96
:0C1C540066006F7666002E000D0A00008E
:00000001FF
