:100000000C9435000C945D000C945D000C945D0024
:100010000C945D000C945D000C945D000C945D00EC
:100020000C945D000C945D000C945D000C945D00DC
:100030000C945D000C945D000C945D000C945D00CC
:100040000C94D3010C945D000C94A1010C947B01E1
:100050000C945D000C945D000C945D000C945D00AC
:100060000C945D000C945D000D0311241FBECFEFB6
:10007000D8E0DEBFCDBF11E0A0E0B1E0E6E0F7E000
:1000800002C005900D92A431B107D9F721E0A4E197
:10009000B1E001C01D92AA3BB207E1F710E0C5E351
:1000A000D0E004C02197FE010E946703C433D1074A
:1000B000C9F70E941D020C9481030C940000CF929A
:1000C000DF92EF92FF920F931F93CF93DF936C0118
:1000D0007A018B01C0E0D0E0CE15DF0589F0D801B0
:1000E0006D918D01D601ED91FC910190F081E02D93
:1000F000C6010995892B11F47E0102C02196ECCF2F
:10010000C701DF91CF911F910F91FF90EF90DF908A
:10011000CF900895FC01918D828D981761F0828DAA
:10012000DF01A80FB11D5D968C91928D9F5F9F732B
:10013000928F90E008958FEF9FEF0895FC01918DCD
:10014000828D981731F0828DE80FF11D858D90E03A
:1001500008958FEF9FEF0895FC01918D228D892FD7
:1001600090E0805C9F4F821B91098F7399270895BF
:100170008DE191E00E94AC0021E0892B09F420E0A0
:10018000822F0895FC01848DDF01A80FB11DA35AB1
:10019000BF4F2C91848D90E001968F739927848FA7
:1001A000A689B7892C93A089B1898C9180648C939E
:1001B000938D848D981306C00288F389E02D808189
:1001C0008F7D80830895EF92FF920F931F93CF93BB
:1001D000DF93EC0181E0888F9B8D8C8D981305C097
:1001E000E889F989808185FD24C0F62E0B8D10E009
:1001F0000F5F1F4F0F731127E02E8C8DE8120CC07C
:100200000FB607FCFACFE889F989808185FFF5CF21
:10021000CE010E94C200F1CF8B8DFE01E80FF11DCF
:10022000E35AFF4FF0820B8FEA89FB89808180625D
:1002300007C0EE89FF896083E889F989808180643D
:10024000808381E090E0DF91CF911F910F91FF902B
:10025000EF900895CF93DF93EC01888D8823C9F048
:10026000EA89FB89808185FD05C0A889B9898C91BF
:1002700086FD0FC00FB607FCF5CF808185FFF2CF5A
:10028000A889B9898C9185FFEDCFCE010E94C2006B
:10029000E7CFDF91CF91089580E090E0892B29F09E
:1002A0000E94B80081110C94000008959FB7F89443
:1002B0004091190150911A0160911B0170911C012C
:1002C00086B5A89B06C08F3F21F04F5F5F4F6F4FF1
:1002D0007F4F9FBF762F652F542F44279A01AB0184
:1002E000280F311D411D511DA5E0B0E00E945C03A7
:1002F00008950E947C031F920F920FB60F92112453
:100300002F933F934F935F936F937F938F939F931D
:10031000AF93BF93EF93FF938DE191E00E94C200F2
:10032000FF91EF91BF91AF919F918F917F916F91CD
:100330005F914F913F912F910F900FBE0F901F90A3
:1003400018951F920F920FB60F9211242F938F932F
:100350009F93EF93FF93E0912D01F0912E01808107
:10036000E0913301F091340182FD12C090818091BF
:1003700036018F5F8F7320913701821751F0E09122
:100380003601F0E0E35EFE4F958F8093360101C0A9
:100390008081FF91EF919F918F912F910F900FBED0
:1003A0000F901F9018951F920F920FB60F92112465
:1003B0002F933F938F939F93AF93BF93809115019A
:1003C00090911601A0911701B0911801309114017C
:1003D0002DE3230F2D3720F40196A11DB11D05C07B
:1003E00020EC230F0296A11DB11D209314018093D0
:1003F000150190931601A0931701B09318018091F5
:10040000190190911A01A0911B01B0911C01019654
:10041000A11DB11D8093190190931A01A0931B0196
:10042000B0931C01BF91AF919F918F913F912F91FC
:100430000F900FBE0F901F901895CF93DF93CDB7FD
:10044000DEB7A1970FB6F894DEBF0FBECDBF78948C
:1004500084B5826084BD84B5816084BD85B58260C9
:1004600085BD85B5816085BD80916E00816080937A
:100470006E001092810080918100826080938100E3
:1004800080918100816080938100809180008160F3
:10049000809380008091B10084608093B10080914E
:1004A000B00081608093B00080917A008460809376
:1004B0007A0080917A00826080937A0080917A003D
:1004C0008E7F80937A0080917A00806880937A0092
:1004D0001092C100E0912D01F0912E0182E0808305
:1004E000E0912901F0912A011082E0912B01F09115
:1004F0002C018BE0808310923501E0913101F09165
:10050000320186E08083E0912F01F09130018081FB
:1005100080618083E0912F01F091300180818860BB
:100520008083E0912F01F091300180818068808389
:10053000E0912F01F091300180818F7D80839AE0DE
:10054000892E912CA12CB12C0E9456012B013C012B
:1005500088EEC82E83E0D82EE12CF12C0E945601A3
:10056000DC01CB0184199509A609B709883E93409F
:10057000A105B10558F021E0C21AD108E108F1083F
:1005800088EE480E83E0581E611C711CC114D10412
:10059000E104F10419F7C12CD12C760119A2A701AD
:1005A00096018E010F5D1F4FCA01B901A50194018B
:1005B0000E943A03605DF80162938F0121153105B5
:1005C0004105510589F7309761F001900020E9F766
:1005D0003197AF01401B510BB8018DE191E00E94B2
:1005E0005F00F7E2CF16D104E104F10459F060E2B4
:1005F0008DE191E00E94E300FFEFCF1ADF0AEF0ADE
:10060000FF0ACCCF42E050E060E171E08DE191E083
:100610000E945F000E944C0197CFEDE1F1E0138250
:10062000128288EE93E0A0E0B0E084839583A683F5
:10063000B78384E091E09183808385EC90E0958797
:10064000848784EC90E09787868780EC90E0918B9C
:10065000808B81EC90E0938B828B82EC90E0958B89
:10066000848B86EC90E0978B868B118E128E138E86
:10067000148E0895A1E21A2EAA1BBB1BFD010DC00A
:10068000AA1FBB1FEE1FFF1FA217B307E407F50742
:1006900020F0A21BB30BE40BF50B661F771F881F1E
:1006A000991F1A9469F760957095809590959B01B4
:1006B000AC01BD01CF0108950E946D03A59F900D6F
:1006C000B49F900DA49F800D911D11240895EE0FED
:1006D000FF1F0590F491E02D0994A29FB001B39FF4
:1006E000C001A39F700D811D1124911DB29F700D3B
:1006F000811D1124911D089581E090E0F8940C94DF
:060700008103F894FFCF15
:1007060000000000E3005F00AC008A009E002A01A2
:040716000D0A0000C8
:00000001FF
